{
  "contractName": "MedicineW_D",
  "abi": [
    {
      "inputs": [
        {
          "name": "BatchID",
          "type": "address"
        },
        {
          "name": "Sender",
          "type": "address"
        },
        {
          "name": "Shipper",
          "type": "address"
        },
        {
          "name": "Receiver",
          "type": "address"
        }
      ],
      "payable": false,
      "stateMutability": "nonpayable",
      "type": "constructor"
    },
    {
      "constant": false,
      "inputs": [
        {
          "name": "BatchID",
          "type": "address"
        },
        {
          "name": "Shipper",
          "type": "address"
        }
      ],
      "name": "pickWD",
      "outputs": [],
      "payable": false,
      "stateMutability": "nonpayable",
      "type": "function"
    },
    {
      "constant": false,
      "inputs": [
        {
          "name": "BatchID",
          "type": "address"
        },
        {
          "name": "Receiver",
          "type": "address"
        }
      ],
      "name": "recieveWD",
      "outputs": [],
      "payable": false,
      "stateMutability": "nonpayable",
      "type": "function"
    },
    {
      "constant": true,
      "inputs": [],
      "name": "getBatchIDStatus",
      "outputs": [
        {
          "name": "",
          "type": "uint256"
        }
      ],
      "payable": false,
      "stateMutability": "view",
      "type": "function"
    }
  ],
  "bytecode": "0x608060405234801561001057600080fd5b506040516080806104bb8339810180604052608081101561003057600080fd5b5080516020820151604083015160609093015160008054600160a060020a0319908116600160a060020a03948516908117835560018054831696861696909617909555600280548216909517909455600380548516958416959095179094556004805490931691161760a060020a60ff02191690556104069081906100b590396000f3fe608060405260043610610050577c01000000000000000000000000000000000000000000000000000000006000350463443c28d88114610055578063d2f3fcc714610092578063f4c07229146100b9575b600080fd5b34801561006157600080fd5b506100906004803603604081101561007857600080fd5b50600160a060020a03813581169160200135166100f4565b005b34801561009e57600080fd5b506100a7610257565b60408051918252519081900360200190f35b3480156100c557600080fd5b50610090600480360360408110156100dc57600080fd5b50600160a060020a0381358116916020013516610288565b600354600160a060020a0382811691161461019657604080517f08c379a000000000000000000000000000000000000000000000000000000000815260206004820152602f60248201527f4f6e6c79204173736f63696174656420736869707065722063616e2063616c6c60448201527f20746869732066756e6374696f6e2e0000000000000000000000000000000000606482015290519081900360840190fd5b6004805474ff000000000000000000000000000000000000000019167401000000000000000000000000000000000000000017808255600254604080517fbd786835000000000000000000000000000000000000000000000000000000008152600160a060020a03938416948101949094529082166024840152519084169163bd78683591604480830192600092919082900301818387803b15801561023b57600080fd5b505af115801561024f573d6000803e3d6000fd5b505050505050565b60045460009074010000000000000000000000000000000000000000900460ff16600281111561028357fe5b905090565b600454600160a060020a0382811691161461032a57604080517f08c379a000000000000000000000000000000000000000000000000000000000815260206004820152603060248201527f4f6e6c79204173736f6369617465642072656365697665722063616e2063616c60448201527f6c20746869732066756e6374696f6e2e00000000000000000000000000000000606482015290519081900360840190fd5b600480546002919074ff000000000000000000000000000000000000000019167401000000000000000000000000000000000000000083021790555081600160a060020a031663952565cf826040518263ffffffff167c01000000000000000000000000000000000000000000000000000000000281526004018082600160a060020a0316600160a060020a03168152602001915050600060405180830381600087803b15801561023b57600080fdfea165627a7a72305820c9edf01165fa0011c157f68f74a5d0556515581606402a39422209a62f74c4d60029",
  "source": "pragma solidity >=0.4.25 <0.6.0;\r\n\r\nimport './Medicine.sol';\r\n\r\n/********************************************** MedicineW_D ******************************************/\r\n/// @title MedicineW_D\r\n/// @notice\r\n/// @dev Sub Contract for Medicine Transaction between Wholesaler and Distributer\r\ncontract MedicineW_D {\r\n    /// @notice\r\n    address Owner;\r\n\r\n    enum packageStatus { atWholesaler, picked, delivered }\r\n\r\n    /// @notice\r\n    address batchid;\r\n    /// @notice\r\n    address sender;\r\n    /// @notice\r\n    address shipper;\r\n    /// @notice\r\n    address receiver;\r\n    /// @notice\r\n    packageStatus status;\r\n\r\n    /// @notice\r\n    /// @dev Create SubContract for Medicine Transaction\r\n    /// @param BatchID Medicine BatchID\r\n    /// @param Sender Wholesaler Ethereum Network Address\r\n    /// @param Shipper Transporter Ethereum Network Address\r\n    /// @param Receiver Distributer Ethereum Network Address\r\n    constructor(address BatchID, address Sender, address Shipper, address Receiver) public {\r\n        Owner = Sender;\r\n        batchid = BatchID;\r\n        sender = Sender;\r\n        shipper = Shipper;\r\n        receiver = Receiver;\r\n        status = packageStatus(0);\r\n    }\r\n\r\n    /// @notice\r\n    /// @dev Pick Medicine Batch by Associated Transporter\r\n    /// @param BatchID Medicine BatchID\r\n    /// @param Shipper Transporter Ethereum Network Address\r\n    function pickWD(address BatchID, address Shipper) public {\r\n        require(Shipper == shipper, \"Only Associated shipper can call this function.\");\r\n        status = packageStatus(1);\r\n        Medicine(BatchID).sendWD(receiver,sender);\r\n    }\r\n\r\n    /// @notice\r\n    /// @dev Recieved Medicine Batch by Associate Distributer\r\n    /// @param BatchID Medicine BatchID\r\n    /// @param Receiver Distributer Ethereum Network Address\r\n    function recieveWD(address BatchID,address Receiver) public {\r\n        require(Receiver == receiver, \"Only Associated receiver can call this function.\");\r\n        status = packageStatus(2);\r\n        Medicine(BatchID).recievedWD(Receiver);\r\n    }\r\n\r\n    /// @notice\r\n    /// @dev Get Medicine Batch Transaction status in between Wholesaler and Distributer\r\n    /// @return Transaction status\r\n    function getBatchIDStatus() public view returns(uint) {\r\n        return uint(status);\r\n    }\r\n}\r\n",
  "sourcePath": "/truffle/contracts/MedicineW_D.sol",
  "compiler": {
    "name": "solc",
    "version": "0.5.1+commit.c8a2cb62.Emscripten.clang"
  },
  "schemaVersion": "3.4.7",
  "updatedAt": "2023-05-16T07:46:17.966Z",
  "devdoc": {
    "details": "Sub Contract for Medicine Transaction between Wholesaler and Distributer",
    "methods": {
      "constructor": {
        "params": {
          "Receiver": "Distributer Ethereum Network Address"
        }
      },
      "getBatchIDStatus()": {
        "return": "Transaction status"
      },
      "pickWD(address,address)": {
        "params": {
          "Shipper": "Transporter Ethereum Network Address"
        }
      },
      "recieveWD(address,address)": {
        "params": {
          "Receiver": "Distributer Ethereum Network Address"
        }
      }
    }
  },
  "userdoc": {
    "methods": {}
  }
}