{
  "contractName": "Medicine",
  "abi": [
    {
      "inputs": [
        {
          "name": "Manu",
          "type": "address"
        },
        {
          "name": "Des",
          "type": "bytes32"
        },
        {
          "name": "RM",
          "type": "address"
        },
        {
          "name": "Quant",
          "type": "uint256"
        },
        {
          "name": "Shpr",
          "type": "address"
        },
        {
          "name": "Rcvr",
          "type": "address"
        },
        {
          "name": "RcvrType",
          "type": "uint256"
        }
      ],
      "payable": false,
      "stateMutability": "nonpayable",
      "type": "constructor"
    },
    {
      "anonymous": false,
      "inputs": [
        {
          "indexed": true,
          "name": "BatchID",
          "type": "address"
        },
        {
          "indexed": true,
          "name": "Shipper",
          "type": "address"
        },
        {
          "indexed": true,
          "name": "Receiver",
          "type": "address"
        },
        {
          "indexed": false,
          "name": "TransporterType",
          "type": "uint256"
        },
        {
          "indexed": false,
          "name": "Status",
          "type": "uint256"
        }
      ],
      "name": "ShippmentUpdate",
      "type": "event"
    },
    {
      "constant": true,
      "inputs": [],
      "name": "getMedicineInfo",
      "outputs": [
        {
          "name": "Manu",
          "type": "address"
        },
        {
          "name": "Des",
          "type": "bytes32"
        },
        {
          "name": "RM",
          "type": "address"
        },
        {
          "name": "Quant",
          "type": "uint256"
        },
        {
          "name": "Shpr",
          "type": "address"
        }
      ],
      "payable": false,
      "stateMutability": "view",
      "type": "function"
    },
    {
      "constant": true,
      "inputs": [],
      "name": "getWDP",
      "outputs": [
        {
          "name": "WDP",
          "type": "address[3]"
        }
      ],
      "payable": false,
      "stateMutability": "view",
      "type": "function"
    },
    {
      "constant": true,
      "inputs": [],
      "name": "getBatchIDStatus",
      "outputs": [
        {
          "name": "",
          "type": "uint256"
        }
      ],
      "payable": false,
      "stateMutability": "view",
      "type": "function"
    },
    {
      "constant": false,
      "inputs": [
        {
          "name": "shpr",
          "type": "address"
        }
      ],
      "name": "pickPackage",
      "outputs": [],
      "payable": false,
      "stateMutability": "nonpayable",
      "type": "function"
    },
    {
      "constant": false,
      "inputs": [
        {
          "name": "Rcvr",
          "type": "address"
        }
      ],
      "name": "receivedPackage",
      "outputs": [
        {
          "name": "rcvtype",
          "type": "uint256"
        }
      ],
      "payable": false,
      "stateMutability": "nonpayable",
      "type": "function"
    },
    {
      "constant": false,
      "inputs": [
        {
          "name": "receiver",
          "type": "address"
        },
        {
          "name": "sender",
          "type": "address"
        }
      ],
      "name": "sendWD",
      "outputs": [],
      "payable": false,
      "stateMutability": "nonpayable",
      "type": "function"
    },
    {
      "constant": false,
      "inputs": [
        {
          "name": "receiver",
          "type": "address"
        }
      ],
      "name": "recievedWD",
      "outputs": [],
      "payable": false,
      "stateMutability": "nonpayable",
      "type": "function"
    },
    {
      "constant": false,
      "inputs": [
        {
          "name": "receiver",
          "type": "address"
        },
        {
          "name": "sender",
          "type": "address"
        }
      ],
      "name": "sendDP",
      "outputs": [],
      "payable": false,
      "stateMutability": "nonpayable",
      "type": "function"
    },
    {
      "constant": false,
      "inputs": [
        {
          "name": "receiver",
          "type": "address"
        }
      ],
      "name": "recievedDP",
      "outputs": [],
      "payable": false,
      "stateMutability": "nonpayable",
      "type": "function"
    }
  ],
  "bytecode": "0x608060405234801561001057600080fd5b5060405160e080610b91833981018060405260e081101561003057600080fd5b508051602082015160408301516060840151608085015160a086015160c09096015160008054600160a060020a0319908116600160a060020a03808a169182179093556005805483169091179055600187815560028054831684891617905560038690556004805490921692851692909217905595969495939492939192918114156100d65760068054600160a060020a031916600160a060020a0384161790556100fb565b80600214156100fb5760078054600160a060020a031916600160a060020a0384161790555b50505050505050610a80806101116000396000f3fe608060405260043610610092577c0100000000000000000000000000000000000000000000000000000000600035046301a9a23e81146100975780634175699d146100e457806352b9996814610119578063638e9a3d1461015e578063952565cf14610191578063a19ffd60146101c4578063bd786835146101ff578063d2f3fcc71461023a578063e002c8a51461024f575b600080fd5b3480156100a357600080fd5b506100ac6102a0565b6040518082606080838360005b838110156100d15781810151838201526020016100b9565b5050505090500191505060405180910390f35b3480156100f057600080fd5b506101176004803603602081101561010757600080fd5b5035600160a060020a03166102db565b005b34801561012557600080fd5b5061014c6004803603602081101561013c57600080fd5b5035600160a060020a031661036a565b60408051918252519081900360200190f35b34801561016a57600080fd5b506101176004803603602081101561018157600080fd5b5035600160a060020a03166105d7565b34801561019d57600080fd5b50610117600480360360208110156101b457600080fd5b5035600160a060020a03166107a4565b3480156101d057600080fd5b50610117600480360360408110156101e757600080fd5b50600160a060020a0381358116916020013516610836565b34801561020b57600080fd5b506101176004803603604081101561022257600080fd5b50600160a060020a0381358116916020013516610914565b34801561024657600080fd5b5061014c6109ce565b34801561025b57600080fd5b506102646109ee565b60408051600160a060020a0396871681526020810195909552928516848401526060840191909152909216608082015290519081900360a00190f35b6102a8610a15565b5060408051606081018252600654600160a060020a03908116825260075481166020830152600854169181019190915290565b600854600160a060020a03828116911614610340576040805160e560020a62461bcd02815260206004820152601e60248201527f5468697320506861726d61206973206e6f74204173736f6369617465642e0000604482015290519081900360640190fd5b60065b6008805460a060020a60ff02191660a060020a83600681111561036257fe5b021790555050565b600654600090600160a060020a03838116911614806103965750600754600160a060020a038381169116145b1515610412576040805160e560020a62461bcd02815260206004820152603f60248201527f4f6e6c79204173736f63696174652057686f6c6573616c6572206f722044697360448201527f74727562757465722063616e2063616c6c20746869732066756e6374696f6e00606482015290519081900360840190fd5b60085460019060a060020a900460ff16600681111561042d57fe5b1015610483576040805160e560020a62461bcd02815260206004820152601960248201527f50726f64756374206e6f74207069636b65642075702079657400000000000000604482015290519081900360640190fd5b600654600160a060020a0383811691161480156104b75750600160085460a060020a900460ff1660068111156104b557fe5b145b1561052a576008805460a060020a60ff021916740300000000000000000000000000000000000000001790556006546004546040805160028152600360208201528151600160a060020a0394851694909316923092600080516020610a35833981519152928290030190a45060016105d2565b600754600160a060020a03838116911614801561055e5750600260085460a060020a900460ff16600681111561055c57fe5b145b156105d2576008805460a060020a60ff0219167404000000000000000000000000000000000000000017905560075460048054604080516003815260208101939093528051600160a060020a0394851694909216923092600080516020610a35833981519152929181900390910190a45060025b919050565b600454600160a060020a03828116911614610662576040805160e560020a62461bcd02815260206004820152602d60248201527f4f6e6c79204173736f636961746520536869707065722063616e2063616c6c2060448201527f746869732066756e6374696f6e00000000000000000000000000000000000000606482015290519081900360840190fd5b600060085460a060020a900460ff16600681111561067c57fe5b146106d1576040805160e560020a62461bcd02815260206004820152601c60248201527f5061636b616765206d75737420626520617420537570706c6965722e00000000604482015290519081900360640190fd5b600654600160a060020a03161561073b576008805460a060020a60ff02191660a060020a17905560065460045460408051600180825260208201528151600160a060020a0394851694909316923092600080516020610a35833981519152928290030190a46107a1565b6008805460a060020a60ff0219167402000000000000000000000000000000000000000017905560075460045460408051600180825260208201528151600160a060020a0394851694909316923092600080516020610a35833981519152928290030190a45b50565b600754600160a060020a0382811691161461082f576040805160e560020a62461bcd02815260206004820152602360248201527f54686973204469737472696275746572206973206e6f74204173736f6369617460448201527f65642e0000000000000000000000000000000000000000000000000000000000606482015290519081900360840190fd5b6004610343565b600754600160a060020a038281169116146108c1576040805160e560020a62461bcd02815260206004820152602360248201527f54686973204469737472696275746572206973206e6f74204173736f6369617460448201527f65642e0000000000000000000000000000000000000000000000000000000000606482015290519081900360840190fd5b6008805473ffffffffffffffffffffffffffffffffffffffff1916600160a060020a03841617905560055b6008805460a060020a60ff02191660a060020a83600681111561090b57fe5b02179055505050565b600654600160a060020a0382811691161461099f576040805160e560020a62461bcd02815260206004820152602260248201527f746869732057686f6c6573616c6572206973206e6f74204173736f636961746560448201527f642e000000000000000000000000000000000000000000000000000000000000606482015290519081900360840190fd5b6007805473ffffffffffffffffffffffffffffffffffffffff1916600160a060020a03841617905560026108ec565b60085460009060a060020a900460ff1660068111156109e957fe5b905090565b600554600154600254600354600454600160a060020a039485169492831692169091929394565b606060405190810160405280600390602082028038833950919291505056fe7e89c4b1a4e2b51aae84eb1f90e8a34cb792ece5ac5cb63db4830c891220b28da165627a7a723058203886ad24551b79a3e0dc1eee080b4f10385927bbe408dc9d58ee853bcc6457db0029",
  "source": "pragma solidity >=0.4.25 <0.6.0;\r\n\r\n/********************************************** Medicine ******************************************/\r\n// @title Medicine\r\n// @notice\r\n// @dev\r\ncontract Medicine {\r\n    /// @notice\r\n    address Owner;\r\n\r\n    enum MedicineStatus {\r\n        atcreator,\r\n        picked4W,\r\n        picked4D,\r\n        deliveredatW,\r\n        deliveredatD,\r\n        picked4P,\r\n        deliveredatP\r\n    }\r\n\r\n    // address batchid;\r\n    bytes32 description;\r\n    /// @notice\r\n    address rawmateriales;\r\n    /// @notice\r\n    uint256 quantity;\r\n    /// @notice\r\n    address shipper;\r\n    /// @notice\r\n    address manufacturer;\r\n    /// @notice\r\n    address wholesaler;\r\n    /// @notice\r\n    address distributer;\r\n    /// @notice\r\n    address pharma;\r\n    /// @notice\r\n    MedicineStatus status;\r\n\r\n    event ShippmentUpdate(\r\n        address indexed BatchID,\r\n        address indexed Shipper,\r\n        address indexed Receiver,\r\n        uint256 TransporterType,\r\n        uint256 Status\r\n    );\r\n\r\n    /// @notice\r\n    /// @dev Create new Medicine Batch by Manufacturer\r\n    /// @param Manu Manufacturer Ethereum Network Address\r\n    /// @param Des Description of Medicine Batch\r\n    /// @param RM RawMatrials for Medicine\r\n    /// @param Quant Number of units\r\n    /// @param Shpr Transporter Ethereum Network Address\r\n    /// @param Rcvr Receiver Ethereum Network Address\r\n    /// @param RcvrType Receiver Type either Wholesaler(1) or Distributer(2)\r\n    constructor(\r\n        address Manu,\r\n        bytes32 Des,\r\n        address RM,\r\n        uint256 Quant,\r\n        address Shpr,\r\n        address Rcvr,\r\n        uint256 RcvrType\r\n    ) public {\r\n        Owner = Manu;\r\n        manufacturer = Manu;\r\n        description = Des;\r\n        rawmateriales = RM;\r\n        quantity = Quant;\r\n        shipper = Shpr;\r\n        if (RcvrType == 1) {\r\n            wholesaler = Rcvr;\r\n        } else if (RcvrType == 2) {\r\n            distributer = Rcvr;\r\n        }\r\n    }\r\n\r\n    /// @notice\r\n    /// @dev Get Medicine Batch basic Details\r\n    /// @return Medicine Batch Details\r\n    function getMedicineInfo()\r\n        public\r\n        view\r\n        returns (\r\n            address Manu,\r\n            bytes32 Des,\r\n            address RM,\r\n            uint256 Quant,\r\n            address Shpr\r\n        )\r\n    {\r\n        return (manufacturer, description, rawmateriales, quantity, shipper);\r\n    }\r\n\r\n    /// @notice\r\n    /// @dev Get address Wholesaler, Distributer and Pharma\r\n    /// @return Address Array\r\n    function getWDP() public view returns (address[3] memory WDP) {\r\n        return ([wholesaler, distributer, pharma]);\r\n    }\r\n\r\n    /// @notice\r\n    /// @dev Get Medicine Batch Transaction Status\r\n    /// @return Medicine Transaction Status\r\n    function getBatchIDStatus() public view returns (uint256) {\r\n        return uint256(status);\r\n    }\r\n\r\n    /// @notice\r\n    /// @dev Pick Medicine Batch by Associate Transporter\r\n    /// @param shpr Transporter Ethereum Network Address\r\n    function pickPackage(address shpr) public {\r\n        require(\r\n            shpr == shipper,\r\n            \"Only Associate Shipper can call this function\"\r\n        );\r\n        require(status == MedicineStatus(0), \"Package must be at Supplier.\");\r\n\r\n        if (wholesaler != address(0x0)) {\r\n            status = MedicineStatus(1);\r\n            emit ShippmentUpdate(address(this), shipper, wholesaler, 1, 1);\r\n        } else {\r\n            status = MedicineStatus(2);\r\n            emit ShippmentUpdate(address(this), shipper, distributer, 1, 1);\r\n        }\r\n    }\r\n\r\n    /// @notice\r\n    /// @dev Received Medicine Batch by Associated Wholesaler or Distributer\r\n    /// @param Rcvr Wholesaler or Distributer\r\n    function receivedPackage(address Rcvr) public returns (uint256 rcvtype) {\r\n        require(\r\n            Rcvr == wholesaler || Rcvr == distributer,\r\n            \"Only Associate Wholesaler or Distrubuter can call this function\"\r\n        );\r\n        require(uint256(status) >= 1, \"Product not picked up yet\");\r\n\r\n        if (Rcvr == wholesaler && status == MedicineStatus(1)) {\r\n            status = MedicineStatus(3);\r\n            emit ShippmentUpdate(address(this), shipper, wholesaler, 2, 3);\r\n            return 1;\r\n        } else if (Rcvr == distributer && status == MedicineStatus(2)) {\r\n            status = MedicineStatus(4);\r\n            emit ShippmentUpdate(address(this), shipper, distributer, 3, 4);\r\n            return 2;\r\n        }\r\n    }\r\n\r\n    /// @notice\r\n    /// @dev Update Medicine Batch transaction Status(Pick) in between Wholesaler and Distributer\r\n    /// @param receiver Distributer Ethereum Network Address\r\n    /// @param sender Wholesaler Ethereum Network Address\r\n    function sendWD(address receiver, address sender) public {\r\n        require(wholesaler == sender, \"this Wholesaler is not Associated.\");\r\n        distributer = receiver;\r\n        status = MedicineStatus(2);\r\n    }\r\n\r\n    /// @notice\r\n    /// @dev Update Medicine Batch transaction Status(Recieved) in between Wholesaler and Distributer\r\n    /// @param receiver Distributer\r\n    function recievedWD(address receiver) public {\r\n        require(distributer == receiver, \"This Distributer is not Associated.\");\r\n        status = MedicineStatus(4);\r\n    }\r\n\r\n    /// @notice\r\n    /// @dev Update Medicine Batch transaction Status(Pick) in between Distributer and Pharma\r\n    /// @param receiver Pharma Ethereum Network Address\r\n    /// @param sender Distributer Ethereum Network Address\r\n    function sendDP(address receiver, address sender) public {\r\n        require(distributer == sender, \"This Distributer is not Associated.\");\r\n        pharma = receiver;\r\n        status = MedicineStatus(5);\r\n    }\r\n\r\n    /// @notice\r\n    /// @dev Update Medicine Batch transaction Status(Recieved) in between Distributer and Pharma\r\n    /// @param receiver Pharma Ethereum Network Address\r\n    function recievedDP(address receiver) public {\r\n        require(pharma == receiver, \"This Pharma is not Associated.\");\r\n        status = MedicineStatus(6);\r\n    }\r\n}\r\n",
  "sourcePath": "/truffle/contracts/Medicine.sol",
  "compiler": {
    "name": "solc",
    "version": "0.5.1+commit.c8a2cb62.Emscripten.clang"
  },
  "schemaVersion": "3.4.7",
  "updatedAt": "2023-05-16T07:46:17.950Z",
  "devdoc": {
    "methods": {
      "constructor": {
        "params": {
          "RcvrType": "Receiver Type either Wholesaler(1) or Distributer(2)"
        }
      },
      "getBatchIDStatus()": {
        "return": "Medicine Transaction Status"
      },
      "getMedicineInfo()": {
        "return": "Medicine Batch Details"
      },
      "getWDP()": {
        "return": "Address Array"
      },
      "pickPackage(address)": {
        "params": {
          "shpr": "Transporter Ethereum Network Address"
        }
      },
      "receivedPackage(address)": {
        "params": {
          "Rcvr": "Wholesaler or Distributer"
        }
      },
      "recievedDP(address)": {
        "params": {
          "receiver": "Pharma Ethereum Network Address"
        }
      },
      "recievedWD(address)": {
        "params": {
          "receiver": "Distributer"
        }
      },
      "sendDP(address,address)": {
        "params": {
          "sender": "Distributer Ethereum Network Address"
        }
      },
      "sendWD(address,address)": {
        "params": {
          "sender": "Wholesaler Ethereum Network Address"
        }
      }
    }
  },
  "userdoc": {
    "methods": {},
    "notice": "******************************************** Medicine *****************************************"
  }
}