{
  "contractName": "RawMaterials",
  "abi": [
    {
      "inputs": [
        {
          "name": "Splr",
          "type": "address"
        },
        {
          "name": "Des",
          "type": "bytes32"
        },
        {
          "name": "FN",
          "type": "bytes32"
        },
        {
          "name": "Loc",
          "type": "bytes32"
        },
        {
          "name": "Quant",
          "type": "uint256"
        },
        {
          "name": "Shpr",
          "type": "address"
        },
        {
          "name": "Rcvr",
          "type": "address"
        }
      ],
      "payable": false,
      "stateMutability": "nonpayable",
      "type": "constructor"
    },
    {
      "anonymous": false,
      "inputs": [
        {
          "indexed": true,
          "name": "BatchID",
          "type": "address"
        },
        {
          "indexed": true,
          "name": "Shipper",
          "type": "address"
        },
        {
          "indexed": true,
          "name": "Manufacturer",
          "type": "address"
        },
        {
          "indexed": false,
          "name": "TransporterType",
          "type": "uint256"
        },
        {
          "indexed": false,
          "name": "Status",
          "type": "uint256"
        }
      ],
      "name": "ShippmentUpdate",
      "type": "event"
    },
    {
      "constant": true,
      "inputs": [],
      "name": "getSuppliedRawMaterials",
      "outputs": [
        {
          "name": "Des",
          "type": "bytes32"
        },
        {
          "name": "FN",
          "type": "bytes32"
        },
        {
          "name": "Loc",
          "type": "bytes32"
        },
        {
          "name": "Quant",
          "type": "uint256"
        },
        {
          "name": "usedQuant",
          "type": "uint256"
        },
        {
          "name": "Shpr",
          "type": "address"
        },
        {
          "name": "Rcvr",
          "type": "address"
        },
        {
          "name": "Splr",
          "type": "address"
        }
      ],
      "payable": false,
      "stateMutability": "view",
      "type": "function"
    },
    {
      "constant": true,
      "inputs": [],
      "name": "getRawMaterialsStatus",
      "outputs": [
        {
          "name": "",
          "type": "uint256"
        }
      ],
      "payable": false,
      "stateMutability": "view",
      "type": "function"
    },
    {
      "constant": false,
      "inputs": [
        {
          "name": "shpr",
          "type": "address"
        }
      ],
      "name": "pickPackage",
      "outputs": [],
      "payable": false,
      "stateMutability": "nonpayable",
      "type": "function"
    },
    {
      "constant": false,
      "inputs": [
        {
          "name": "manu",
          "type": "address"
        }
      ],
      "name": "receivedPackage",
      "outputs": [],
      "payable": false,
      "stateMutability": "nonpayable",
      "type": "function"
    },
    {
      "constant": false,
      "inputs": [
        {
          "name": "manu",
          "type": "address"
        },
        {
          "name": "quant",
          "type": "uint256"
        }
      ],
      "name": "useRawPackage",
      "outputs": [],
      "payable": false,
      "stateMutability": "nonpayable",
      "type": "function"
    }
  ],
  "bytecode": "0x608060405234801561001057600080fd5b5060405160e080610750833981018060405260e081101561003057600080fd5b508051602082015160408301516060840151608085015160a086015160c09096015160008054600160a060020a0319908116600160a060020a03988916908117835560018054309084161790556002979097556003959095556004939093556005919091556006829055600780548416968616969096179095556008805483169490951693909317909355600980549093161760a060020a60ff0219169091556106709081906100e090396000f3fe608060405260043610610066577c01000000000000000000000000000000000000000000000000000000006000350463193fc3de811461006b57806352b99968146100a6578063638e9a3d146100d9578063807235201461010c5780639229629914610171575b600080fd5b34801561007757600080fd5b506100a46004803603604081101561008e57600080fd5b50600160a060020a038135169060200135610198565b005b3480156100b257600080fd5b506100a4600480360360208110156100c957600080fd5b5035600160a060020a03166102fd565b3480156100e557600080fd5b506100a4600480360360208110156100fc57600080fd5b5035600160a060020a0316610480565b34801561011857600080fd5b506101216105f1565b6040805198895260208901979097528787019590955260608701939093526080860191909152600160a060020a0390811660a086015290811660c08501521660e083015251908190036101000190f35b34801561017d57600080fd5b50610186610624565b60408051918252519081900360200190f35b60055481106101f1576040805160e560020a62461bcd02815260206004820152601a60248201527f52616d204d6174657269616c204e6f7420617661696c61626c65000000000000604482015290519081900360640190fd5b600854600160a060020a0383811691161461027c576040805160e560020a62461bcd02815260206004820152603260248201527f4f6e6c79204173736f6369617465204d616e7566616374757265722063616e2060448201527f63616c6c20746869732066756e6374696f6e0000000000000000000000000000606482015290519081900360840190fd5b600260095460a060020a900460ff16600281111561029657fe5b146102eb576040805160e560020a62461bcd02815260206004820152601960248201527f50726f64756374206e6f742064656c6576697265642079657400000000000000604482015290519081900360640190fd5b60068190556005805491909103905550565b600854600160a060020a03828116911614610388576040805160e560020a62461bcd02815260206004820152603260248201527f4f6e6c79204173736f6369617465204d616e7566616374757265722063616e2060448201527f63616c6c20746869732066756e6374696f6e0000000000000000000000000000606482015290519081900360840190fd5b600160095460a060020a900460ff1660028111156103a257fe5b146103f7576040805160e560020a62461bcd02815260206004820152601960248201527f50726f64756374206e6f74207069636b65642075702079657400000000000000604482015290519081900360640190fd5b6009805474ff00000000000000000000000000000000000000001916740200000000000000000000000000000000000000001790556008546007546040805160018152600260208201528151600160a060020a03948516949093169230927f7e89c4b1a4e2b51aae84eb1f90e8a34cb792ece5ac5cb63db4830c891220b28d928290030190a450565b600754600160a060020a0382811691161461050b576040805160e560020a62461bcd02815260206004820152602d60248201527f4f6e6c79204173736f636961746520536869707065722063616e2063616c6c2060448201527f746869732066756e6374696f6e00000000000000000000000000000000000000606482015290519081900360840190fd5b600060095460a060020a900460ff16600281111561052557fe5b1461057a576040805160e560020a62461bcd02815260206004820152601c60248201527f5061636b616765206d75737420626520617420537570706c6965722e00000000604482015290519081900360640190fd5b6009805474ff0000000000000000000000000000000000000000191660a060020a17905560085460075460408051600180825260208201528151600160a060020a03948516949093169230927f7e89c4b1a4e2b51aae84eb1f90e8a34cb792ece5ac5cb63db4830c891220b28d928290030190a450565b600254600354600454600554600654600754600854600954600160a060020a039283169291821691169091929394959697565b60095460009060a060020a900460ff16600281111561063f57fe5b90509056fea165627a7a723058205dc003f3130b63bccb89ba85799fed1c9af3876027e8d4ead34dfae577c66fb80029",
  "source": "pragma solidity >=0.4.25 <0.6.0;\r\n\r\n/********************************************** RawMaterials ******************************************/\r\n/// @title RawMaterials\r\n/// @notice\r\n/// @dev Create new instance of RawMaterials package\r\ncontract RawMaterials {\r\n    /// @notice\r\n    address Owner;\r\n\r\n    enum packageStatus {\r\n        atcreator,\r\n        picked,\r\n        delivered\r\n    }\r\n    event ShippmentUpdate(\r\n        address indexed BatchID,\r\n        address indexed Shipper,\r\n        address indexed Manufacturer,\r\n        uint256 TransporterType,\r\n        uint256 Status\r\n    );\r\n    /// @notice\r\n    address productid;\r\n    /// @notice\r\n    bytes32 description;\r\n    /// @notice\r\n    bytes32 farmer_name;\r\n    /// @notice\r\n    bytes32 location;\r\n    /// @notice\r\n    uint256 quantity;\r\n    /// @notice\r\n    uint256 usedQuantity;\r\n    /// @notice\r\n    address shipper;\r\n    /// @notice\r\n    address manufacturer;\r\n    /// @notice\r\n    address supplier;\r\n    /// @notice\r\n    packageStatus status;\r\n    /// @notice\r\n    bytes32 packageReceiverDescription;\r\n\r\n    /// @notice\r\n    /// @dev Intiate New Package of RawMaterials by Supplier\r\n    /// @param Splr Supplier Ethereum Network Address\r\n    /// @param Des Description of RawMaterials\r\n    /// @param FN Farmer Name\r\n    /// @param Loc Farm Location\r\n    /// @param Quant Number of units in a package\r\n    /// @param Shpr Transporter Ethereum Network Address\r\n    /// @param Rcvr Manufacturer Ethereum Network Address\r\n    constructor(\r\n        address Splr,\r\n        bytes32 Des,\r\n        bytes32 FN,\r\n        bytes32 Loc,\r\n        uint256 Quant,\r\n        address Shpr,\r\n        address Rcvr\r\n    ) public {\r\n        Owner = Splr;\r\n        productid = address(this);\r\n        description = Des;\r\n        farmer_name = FN;\r\n        location = Loc;\r\n        quantity = Quant;\r\n        usedQuantity = 0;\r\n        shipper = Shpr;\r\n        manufacturer = Rcvr;\r\n        supplier = Splr;\r\n        status = packageStatus(0);\r\n    }\r\n\r\n    /// @notice\r\n    /// @dev Get RawMaterials Package Details\r\n    /// @return Package Details\r\n    function getSuppliedRawMaterials()\r\n        public\r\n        view\r\n        returns (\r\n            bytes32 Des,\r\n            bytes32 FN,\r\n            bytes32 Loc,\r\n            uint256 Quant,\r\n            uint256 usedQuant,\r\n            address Shpr,\r\n            address Rcvr,\r\n            address Splr\r\n        )\r\n    {\r\n        return (\r\n            description,\r\n            farmer_name,\r\n            location,\r\n            quantity,\r\n            usedQuantity,\r\n            shipper,\r\n            manufacturer,\r\n            supplier\r\n        );\r\n    }\r\n\r\n    /// @notice\r\n    /// @dev Get Package Transaction Status\r\n    /// @return Package Status\r\n    function getRawMaterialsStatus() public view returns (uint256) {\r\n        return uint256(status);\r\n    }\r\n\r\n    /// @notice\r\n    /// @dev Pick Package by Associate Transporter\r\n    /// @param shpr Transporter Ethereum Network Address\r\n    function pickPackage(address shpr) public {\r\n        require(\r\n            shpr == shipper,\r\n            \"Only Associate Shipper can call this function\"\r\n        );\r\n        require(status == packageStatus(0), \"Package must be at Supplier.\");\r\n        status = packageStatus(1);\r\n        emit ShippmentUpdate(address(this), shipper, manufacturer, 1, 1);\r\n    }\r\n\r\n    /// @notice\r\n    /// @dev Received Package Status Update By Associated Manufacturer\r\n    /// @param manu Manufacturer Ethereum Network Address\r\n    function receivedPackage(address manu) public {\r\n        require(\r\n            manu == manufacturer,\r\n            \"Only Associate Manufacturer can call this function\"\r\n        );\r\n        require(status == packageStatus(1), \"Product not picked up yet\");\r\n        status = packageStatus(2);\r\n        emit ShippmentUpdate(address(this), shipper, manufacturer, 1, 2);\r\n    }\r\n\r\n    /// @notice\r\n    /// @dev Received Package Status Update By Associated Manufacturer\r\n    /// @param quant used quantity\r\n    function useRawPackage(address manu, uint256 quant) public {\r\n        require(quantity > quant, \"Ram Material Not available\");\r\n        require(\r\n            manu == manufacturer,\r\n            \"Only Associate Manufacturer can call this function\"\r\n        );\r\n        require(status == packageStatus(2), \"Product not delevired yet\");\r\n        usedQuantity = quant;\r\n        quantity = quantity - quant;\r\n    }\r\n}\r\n",
  "sourcePath": "/truffle/contracts/RawMaterials.sol",
  "compiler": {
    "name": "solc",
    "version": "0.5.1+commit.c8a2cb62.Emscripten.clang"
  },
  "schemaVersion": "3.4.7",
  "updatedAt": "2023-05-16T07:46:17.971Z",
  "devdoc": {
    "details": "Create new instance of RawMaterials package",
    "methods": {
      "constructor": {
        "params": {
          "Rcvr": "Manufacturer Ethereum Network Address"
        }
      },
      "getRawMaterialsStatus()": {
        "return": "Package Status"
      },
      "getSuppliedRawMaterials()": {
        "return": "Package Details"
      },
      "pickPackage(address)": {
        "params": {
          "shpr": "Transporter Ethereum Network Address"
        }
      },
      "receivedPackage(address)": {
        "params": {
          "manu": "Manufacturer Ethereum Network Address"
        }
      },
      "useRawPackage(address,uint256)": {
        "params": {
          "quant": "used quantity"
        }
      }
    }
  },
  "userdoc": {
    "methods": {}
  }
}