{
  "contractName": "SupplyChain",
  "abi": [
    {
      "constant": true,
      "inputs": [],
      "name": "Owner",
      "outputs": [
        {
          "name": "",
          "type": "address"
        }
      ],
      "payable": false,
      "stateMutability": "view",
      "type": "function"
    },
    {
      "inputs": [],
      "payable": false,
      "stateMutability": "nonpayable",
      "type": "constructor"
    },
    {
      "anonymous": false,
      "inputs": [
        {
          "indexed": true,
          "name": "EthAddress",
          "type": "address"
        },
        {
          "indexed": false,
          "name": "Name",
          "type": "bytes32"
        }
      ],
      "name": "UserRegister",
      "type": "event"
    },
    {
      "anonymous": false,
      "inputs": [
        {
          "indexed": true,
          "name": "EthAddress",
          "type": "address"
        },
        {
          "indexed": false,
          "name": "Name",
          "type": "bytes32"
        },
        {
          "indexed": false,
          "name": "Role",
          "type": "uint256"
        }
      ],
      "name": "UserRoleRevoked",
      "type": "event"
    },
    {
      "anonymous": false,
      "inputs": [
        {
          "indexed": true,
          "name": "EthAddress",
          "type": "address"
        },
        {
          "indexed": false,
          "name": "Name",
          "type": "bytes32"
        },
        {
          "indexed": false,
          "name": "Role",
          "type": "uint256"
        }
      ],
      "name": "UserRoleRessigne",
      "type": "event"
    },
    {
      "anonymous": false,
      "inputs": [
        {
          "indexed": true,
          "name": "ProductID",
          "type": "address"
        },
        {
          "indexed": true,
          "name": "Supplier",
          "type": "address"
        },
        {
          "indexed": false,
          "name": "Shipper",
          "type": "address"
        },
        {
          "indexed": true,
          "name": "Receiver",
          "type": "address"
        }
      ],
      "name": "RawSupplyInit",
      "type": "event"
    },
    {
      "anonymous": false,
      "inputs": [
        {
          "indexed": true,
          "name": "BatchId",
          "type": "address"
        },
        {
          "indexed": true,
          "name": "Manufacturer",
          "type": "address"
        },
        {
          "indexed": false,
          "name": "shipper",
          "type": "address"
        },
        {
          "indexed": true,
          "name": "Receiver",
          "type": "address"
        }
      ],
      "name": "MedicineNewBatch",
      "type": "event"
    },
    {
      "anonymous": false,
      "inputs": [
        {
          "indexed": false,
          "name": "BatchID",
          "type": "address"
        },
        {
          "indexed": true,
          "name": "Pharma",
          "type": "address"
        },
        {
          "indexed": false,
          "name": "status",
          "type": "uint256"
        }
      ],
      "name": "MedicineStatus",
      "type": "event"
    },
    {
      "constant": false,
      "inputs": [
        {
          "name": "EthAddress",
          "type": "address"
        },
        {
          "name": "Name",
          "type": "bytes32"
        },
        {
          "name": "Location",
          "type": "bytes32"
        },
        {
          "name": "Role",
          "type": "uint256"
        }
      ],
      "name": "registerUser",
      "outputs": [],
      "payable": false,
      "stateMutability": "nonpayable",
      "type": "function"
    },
    {
      "constant": false,
      "inputs": [
        {
          "name": "userAddress",
          "type": "address"
        }
      ],
      "name": "revokeRole",
      "outputs": [],
      "payable": false,
      "stateMutability": "nonpayable",
      "type": "function"
    },
    {
      "constant": false,
      "inputs": [
        {
          "name": "userAddress",
          "type": "address"
        },
        {
          "name": "Role",
          "type": "uint256"
        }
      ],
      "name": "reassigneRole",
      "outputs": [],
      "payable": false,
      "stateMutability": "nonpayable",
      "type": "function"
    },
    {
      "constant": true,
      "inputs": [
        {
          "name": "User",
          "type": "address"
        }
      ],
      "name": "getUserInfo",
      "outputs": [
        {
          "name": "name",
          "type": "bytes32"
        },
        {
          "name": "location",
          "type": "bytes32"
        },
        {
          "name": "ethAddress",
          "type": "address"
        },
        {
          "name": "role",
          "type": "uint8"
        }
      ],
      "payable": false,
      "stateMutability": "view",
      "type": "function"
    },
    {
      "constant": true,
      "inputs": [],
      "name": "getUsersCount",
      "outputs": [
        {
          "name": "count",
          "type": "uint256"
        }
      ],
      "payable": false,
      "stateMutability": "view",
      "type": "function"
    },
    {
      "constant": true,
      "inputs": [
        {
          "name": "index",
          "type": "uint256"
        }
      ],
      "name": "getUserbyIndex",
      "outputs": [
        {
          "name": "name",
          "type": "bytes32"
        },
        {
          "name": "location",
          "type": "bytes32"
        },
        {
          "name": "ethAddress",
          "type": "address"
        },
        {
          "name": "role",
          "type": "uint8"
        }
      ],
      "payable": false,
      "stateMutability": "view",
      "type": "function"
    },
    {
      "constant": false,
      "inputs": [
        {
          "name": "Des",
          "type": "bytes32"
        },
        {
          "name": "FN",
          "type": "bytes32"
        },
        {
          "name": "Loc",
          "type": "bytes32"
        },
        {
          "name": "Quant",
          "type": "uint256"
        },
        {
          "name": "Shpr",
          "type": "address"
        },
        {
          "name": "Rcvr",
          "type": "address"
        }
      ],
      "name": "createRawPackage",
      "outputs": [],
      "payable": false,
      "stateMutability": "nonpayable",
      "type": "function"
    },
    {
      "constant": true,
      "inputs": [],
      "name": "getPackagesCountS",
      "outputs": [
        {
          "name": "count",
          "type": "uint256"
        }
      ],
      "payable": false,
      "stateMutability": "view",
      "type": "function"
    },
    {
      "constant": true,
      "inputs": [
        {
          "name": "index",
          "type": "uint256"
        }
      ],
      "name": "getPackageIdByIndexS",
      "outputs": [
        {
          "name": "packageID",
          "type": "address"
        }
      ],
      "payable": false,
      "stateMutability": "view",
      "type": "function"
    },
    {
      "constant": false,
      "inputs": [
        {
          "name": "pid",
          "type": "address"
        },
        {
          "name": "transportertype",
          "type": "uint256"
        },
        {
          "name": "cid",
          "type": "address"
        }
      ],
      "name": "loadConsingment",
      "outputs": [],
      "payable": false,
      "stateMutability": "nonpayable",
      "type": "function"
    },
    {
      "constant": true,
      "inputs": [],
      "name": "transportCount",
      "outputs": [
        {
          "name": "count",
          "type": "uint256"
        }
      ],
      "payable": false,
      "stateMutability": "view",
      "type": "function"
    },
    {
      "constant": true,
      "inputs": [
        {
          "name": "index",
          "type": "uint256"
        }
      ],
      "name": "getTransportBatchIdByIndex",
      "outputs": [
        {
          "name": "packageID",
          "type": "address"
        },
        {
          "name": "transportertype",
          "type": "uint256"
        }
      ],
      "payable": false,
      "stateMutability": "view",
      "type": "function"
    },
    {
      "constant": false,
      "inputs": [
        {
          "name": "pid",
          "type": "address"
        }
      ],
      "name": "rawPackageReceived",
      "outputs": [],
      "payable": false,
      "stateMutability": "nonpayable",
      "type": "function"
    },
    {
      "constant": true,
      "inputs": [],
      "name": "getPackagesCountM",
      "outputs": [
        {
          "name": "count",
          "type": "uint256"
        }
      ],
      "payable": false,
      "stateMutability": "view",
      "type": "function"
    },
    {
      "constant": true,
      "inputs": [
        {
          "name": "index",
          "type": "uint256"
        }
      ],
      "name": "getPackageIDByIndexM",
      "outputs": [
        {
          "name": "BatchID",
          "type": "address"
        }
      ],
      "payable": false,
      "stateMutability": "view",
      "type": "function"
    },
    {
      "constant": false,
      "inputs": [
        {
          "name": "Des",
          "type": "bytes32"
        },
        {
          "name": "RM",
          "type": "address"
        },
        {
          "name": "Quant",
          "type": "uint256"
        },
        {
          "name": "usedQuant",
          "type": "uint256"
        },
        {
          "name": "Shpr",
          "type": "address"
        },
        {
          "name": "Rcvr",
          "type": "address"
        },
        {
          "name": "RcvrType",
          "type": "uint256"
        }
      ],
      "name": "manufacturMedicine",
      "outputs": [],
      "payable": false,
      "stateMutability": "nonpayable",
      "type": "function"
    },
    {
      "constant": true,
      "inputs": [],
      "name": "getBatchesCountM",
      "outputs": [
        {
          "name": "count",
          "type": "uint256"
        }
      ],
      "payable": false,
      "stateMutability": "view",
      "type": "function"
    },
    {
      "constant": true,
      "inputs": [
        {
          "name": "index",
          "type": "uint256"
        }
      ],
      "name": "getBatchIdByIndexM",
      "outputs": [
        {
          "name": "packageID",
          "type": "address"
        }
      ],
      "payable": false,
      "stateMutability": "view",
      "type": "function"
    },
    {
      "constant": false,
      "inputs": [
        {
          "name": "batchid",
          "type": "address"
        },
        {
          "name": "cid",
          "type": "address"
        }
      ],
      "name": "medicineReceived",
      "outputs": [],
      "payable": false,
      "stateMutability": "nonpayable",
      "type": "function"
    },
    {
      "constant": true,
      "inputs": [],
      "name": "getBatchesCountW",
      "outputs": [
        {
          "name": "count",
          "type": "uint256"
        }
      ],
      "payable": false,
      "stateMutability": "view",
      "type": "function"
    },
    {
      "constant": true,
      "inputs": [
        {
          "name": "index",
          "type": "uint256"
        }
      ],
      "name": "getBatchIdByIndexW",
      "outputs": [
        {
          "name": "packageID",
          "type": "address"
        }
      ],
      "payable": false,
      "stateMutability": "view",
      "type": "function"
    },
    {
      "constant": false,
      "inputs": [
        {
          "name": "BatchID",
          "type": "address"
        },
        {
          "name": "Shipper",
          "type": "address"
        },
        {
          "name": "Receiver",
          "type": "address"
        }
      ],
      "name": "transferMedicineWtoD",
      "outputs": [],
      "payable": false,
      "stateMutability": "nonpayable",
      "type": "function"
    },
    {
      "constant": true,
      "inputs": [],
      "name": "getBatchesCountWD",
      "outputs": [
        {
          "name": "count",
          "type": "uint256"
        }
      ],
      "payable": false,
      "stateMutability": "view",
      "type": "function"
    },
    {
      "constant": true,
      "inputs": [
        {
          "name": "index",
          "type": "uint256"
        }
      ],
      "name": "getBatchIdByIndexWD",
      "outputs": [
        {
          "name": "packageID",
          "type": "address"
        }
      ],
      "payable": false,
      "stateMutability": "view",
      "type": "function"
    },
    {
      "constant": true,
      "inputs": [
        {
          "name": "BatchID",
          "type": "address"
        }
      ],
      "name": "getSubContractWD",
      "outputs": [
        {
          "name": "SubContractWD",
          "type": "address"
        }
      ],
      "payable": false,
      "stateMutability": "view",
      "type": "function"
    },
    {
      "constant": true,
      "inputs": [],
      "name": "getBatchesCountD",
      "outputs": [
        {
          "name": "count",
          "type": "uint256"
        }
      ],
      "payable": false,
      "stateMutability": "view",
      "type": "function"
    },
    {
      "constant": true,
      "inputs": [
        {
          "name": "index",
          "type": "uint256"
        }
      ],
      "name": "getBatchIdByIndexD",
      "outputs": [
        {
          "name": "packageID",
          "type": "address"
        }
      ],
      "payable": false,
      "stateMutability": "view",
      "type": "function"
    },
    {
      "constant": false,
      "inputs": [
        {
          "name": "BatchID",
          "type": "address"
        },
        {
          "name": "Shipper",
          "type": "address"
        },
        {
          "name": "Receiver",
          "type": "address"
        }
      ],
      "name": "transferMedicineDtoP",
      "outputs": [],
      "payable": false,
      "stateMutability": "nonpayable",
      "type": "function"
    },
    {
      "constant": true,
      "inputs": [],
      "name": "getBatchesCountDP",
      "outputs": [
        {
          "name": "count",
          "type": "uint256"
        }
      ],
      "payable": false,
      "stateMutability": "view",
      "type": "function"
    },
    {
      "constant": true,
      "inputs": [
        {
          "name": "index",
          "type": "uint256"
        }
      ],
      "name": "getBatchIdByIndexDP",
      "outputs": [
        {
          "name": "packageID",
          "type": "address"
        }
      ],
      "payable": false,
      "stateMutability": "view",
      "type": "function"
    },
    {
      "constant": true,
      "inputs": [
        {
          "name": "BatchID",
          "type": "address"
        }
      ],
      "name": "getSubContractDP",
      "outputs": [
        {
          "name": "SubContractDP",
          "type": "address"
        }
      ],
      "payable": false,
      "stateMutability": "view",
      "type": "function"
    },
    {
      "constant": false,
      "inputs": [
        {
          "name": "batchid",
          "type": "address"
        },
        {
          "name": "cid",
          "type": "address"
        }
      ],
      "name": "MedicineRecievedAtPharma",
      "outputs": [],
      "payable": false,
      "stateMutability": "nonpayable",
      "type": "function"
    },
    {
      "constant": false,
      "inputs": [
        {
          "name": "BatchID",
          "type": "address"
        },
        {
          "name": "Status",
          "type": "uint256"
        }
      ],
      "name": "updateSaleStatus",
      "outputs": [],
      "payable": false,
      "stateMutability": "nonpayable",
      "type": "function"
    },
    {
      "constant": true,
      "inputs": [
        {
          "name": "BatchID",
          "type": "address"
        }
      ],
      "name": "salesInfo",
      "outputs": [
        {
          "name": "Status",
          "type": "uint256"
        }
      ],
      "payable": false,
      "stateMutability": "view",
      "type": "function"
    },
    {
      "constant": true,
      "inputs": [],
      "name": "getBatchesCountP",
      "outputs": [
        {
          "name": "count",
          "type": "uint256"
        }
      ],
      "payable": false,
      "stateMutability": "view",
      "type": "function"
    },
    {
      "constant": true,
      "inputs": [
        {
          "name": "index",
          "type": "uint256"
        }
      ],
      "name": "getBatchIdByIndexP",
      "outputs": [
        {
          "name": "BatchID",
          "type": "address"
        }
      ],
      "payable": false,
      "stateMutability": "view",
      "type": "function"
    }
  ],
  "bytecode": "0x608060405234801561001057600080fd5b5060008054600160a060020a03191633179055614f1f806100326000396000f3fe608060405260043610620001d35760e060020a60003504630bcc75688114620001d8578063108329f814620002225780632becfd04146200029c57806331dbe6a114620002c65780633475901614620002f4578063373d5c18146200032b57806337caa450146200036a5780633d66f86d14620003825780635e33cea4146200039a5780636386c1c714620003c857806373f08eb314620003ff57806376e903aa14620004465780637b9c0c21146200047457806380e52e3f14620004d3578063884b9c52146200050a5780638988a3e41462000522578063923f645a1462000561578063986c913914620005aa5780639af035a314620005d85780639f696b3514620006065780639fb3a903146200061e578063a4a1e2631462000636578063b13c499f146200064e578063b4a99a4e1462000666578063b6c022f5146200067e578063bb8ee1c514620006b5578063bc8c5b1c14620006ec578063bf8ee84b1462000723578063cbe4f5ac146200076c578063d40da9671462000784578063d60881db14620007db578063e2dff3a3146200082c578063e581762e146200086b578063e5bff92a1462000883578063eae3c20714620008b1578063f05bcd4e14620008ee578063f06822d8146200091c575b600080fd5b348015620001e557600080fd5b506200020660048036036020811015620001fe57600080fd5b503562000965565b60408051600160a060020a039092168252519081900360200190f35b3480156200022f57600080fd5b5062000250600480360360208110156200024857600080fd5b503562000a23565b6040518085815260200184815260200183600160a060020a0316600160a060020a031681526020018260078111156200028557fe5b60ff16815260200194505050505060405180910390f35b348015620002a957600080fd5b50620002b462000a67565b60408051918252519081900360200190f35b348015620002d357600080fd5b506200020660048036036020811015620002ec57600080fd5b503562000b12565b3480156200030157600080fd5b5062000206600480360360208110156200031a57600080fd5b5035600160a060020a031662000bb5565b3480156200033857600080fd5b5062000368600480360360408110156200035157600080fd5b50600160a060020a03813516906020013562000bd3565b005b3480156200037757600080fd5b50620002b462000db5565b3480156200038f57600080fd5b50620002b462000e61565b348015620003a757600080fd5b506200020660048036036020811015620003c057600080fd5b503562000f1e565b348015620003d557600080fd5b506200025060048036036020811015620003ee57600080fd5b5035600160a060020a031662000fd1565b3480156200040c57600080fd5b5062000368600480360360608110156200042557600080fd5b50600160a060020a038135811691602081013591604090910135166200100d565b3480156200045357600080fd5b5062000206600480360360208110156200046c57600080fd5b503562001345565b3480156200048157600080fd5b5062000368600480360360e08110156200049a57600080fd5b50803590600160a060020a036020820135811691604081013591606082013591608081013582169160a0820135169060c00135620013f9565b348015620004e057600080fd5b506200036860048036036020811015620004f957600080fd5b5035600160a060020a031662001685565b3480156200051757600080fd5b50620002b462001859565b3480156200052f57600080fd5b5062000368600480360360408110156200054857600080fd5b50600160a060020a0381358116916020013516620018f4565b3480156200056e57600080fd5b5062000368600480360360808110156200058757600080fd5b50600160a060020a03813516906020810135906040810135906060013562001bfd565b348015620005b757600080fd5b506200020660048036036020811015620005d057600080fd5b503562001e29565b348015620005e557600080fd5b506200020660048036036020811015620005fe57600080fd5b503562001eee565b3480156200061357600080fd5b50620002b462001fa2565b3480156200062b57600080fd5b50620002b46200204e565b3480156200064357600080fd5b50620002b4620020e9565b3480156200065b57600080fd5b50620002b4620020ef565b3480156200067357600080fd5b5062000206620021ac565b3480156200068b57600080fd5b506200020660048036036020811015620006a457600080fd5b5035600160a060020a0316620021bb565b348015620006c257600080fd5b50620002b460048036036020811015620006db57600080fd5b5035600160a060020a0316620021d9565b348015620006f957600080fd5b5062000368600480360360208110156200071257600080fd5b5035600160a060020a031662002207565b3480156200073057600080fd5b5062000368600480360360608110156200074957600080fd5b50600160a060020a03813581169160208101358216916040909101351662002346565b3480156200077957600080fd5b50620002b46200258e565b3480156200079157600080fd5b5062000368600480360360c0811015620007aa57600080fd5b50803590602081013590604081013590606081013590600160a060020a03608082013581169160a001351662002629565b348015620007e857600080fd5b5062000809600480360360208110156200080157600080fd5b5035620027e6565b60408051600160a060020a03909316835260208301919091528051918290030190f35b3480156200083957600080fd5b5062000368600480360360408110156200085257600080fd5b50600160a060020a038135811691602001351662002902565b3480156200087857600080fd5b50620002b462002aa6565b3480156200089057600080fd5b506200020660048036036020811015620008a957600080fd5b503562002b89565b348015620008be57600080fd5b506200036860048036036040811015620008d757600080fd5b50600160a060020a03813516906020013562002c74565b348015620008fb57600080fd5b5062000206600480360360208110156200091457600080fd5b503562002eb4565b3480156200092957600080fd5b5062000368600480360360608110156200094257600080fd5b50600160a060020a03813581169160208101358216916040909101351662002f57565b600060033360009081526001602052604090206002015460a060020a900460ff1660078111156200099257fe5b14620009ec576040805160e560020a62461bcd028152602060048201526028602482015260008051602062004e94833981519152604482015260008051602062004ed4833981519152606482015290519081900360840190fd5b33600090815260066020526040902080548390811062000a0857fe5b600091825260209091200154600160a060020a031692915050565b60008060008062000a5860028681548110151562000a3d57fe5b600091825260209091200154600160a060020a031662000fd1565b93509350935093509193509193565b600060013360009081526001602052604090206002015460a060020a900460ff16600781111562000a9457fe5b1462000afe576040805160e560020a62461bcd0281526020600482015260248082015260008051602062004e5483398151915260448201527f74696f6e00000000000000000000000000000000000000000000000000000000606482015290519081900360840190fd5b503360009081526003602052604090205490565b600060053360009081526001602052604090206002015460a060020a900460ff16600781111562000b3f57fe5b1462000b99576040805160e560020a62461bcd028152602060048201526028602482015260008051602062004e34833981519152604482015260008051602062004e74833981519152606482015290519081900360840190fd5b336000908152600b6020526040902080548390811062000a0857fe5b600160a060020a039081166000908152600a60205260409020541690565b600054600160a060020a0316331462000c5c576040805160e560020a62461bcd02815260206004820152602260248201527f4f6e6c79206f776e65722063616e2063616c6c20746869732066756e6374696f60448201527f6e2e000000000000000000000000000000000000000000000000000000000000606482015290519081900360840190fd5b6000600160a060020a03831660009081526001602052604090206002015460a060020a900460ff16600781111562000c9057fe5b141562000ce7576040805160e560020a62461bcd02815260206004820152601360248201527f55736572206e6f74207265676973746572656400000000000000000000000000604482015290519081900360640190fd5b80600781111562000cf457fe5b600160a060020a0383166000908152600160205260409020600201805474ff0000000000000000000000000000000000000000191660a060020a83600781111562000d3b57fe5b0217905550600160a060020a038216600081815260016020526040902080546002909101547f4c8b3f61ed94356876db0fec52d6a7c6aeaf772c4e0ca8f6da74331cc0f687cc919060a060020a900460ff16600781111562000d9957fe5b6040805192835260208301919091528051918290030190a25050565b600060043360009081526001602052604090206002015460a060020a900460ff16600781111562000de257fe5b1462000e4d576040805160e560020a62461bcd02815260206004820152602760248201527f4f6e6c792077686f6c6573616c65722043616e2063616c6c2074686973206675604482015260008051602062004eb4833981519152606482015290519081900360840190fd5b503360009081526008602052604090205490565b600060033360009081526001602052604090206002015460a060020a900460ff16600781111562000e8e57fe5b1462000f0a576040805160e560020a62461bcd02815260206004820152602960248201527f4f6e6c79204d616e7566616374757265722043616e2063616c6c20746869732060448201527f66756e6374696f6e2e0000000000000000000000000000000000000000000000606482015290519081900360840190fd5b503360009081526007602052604090205490565b600060013360009081526001602052604090206002015460a060020a900460ff16600781111562000f4b57fe5b1462000fb5576040805160e560020a62461bcd0281526020600482015260248082015260008051602062004e5483398151915260448201527f74696f6e00000000000000000000000000000000000000000000000000000000606482015290519081900360840190fd5b33600090815260036020526040902080548390811062000a0857fe5b600160a060020a0390811660009081526001602081905260409091208054918101546002909101549193909282169160a060020a900460ff1690565b60023360009081526001602052604090206002015460a060020a900460ff1660078111156200103857fe5b14620010b4576040805160e560020a62461bcd02815260206004820152602760248201527f4f6e6c79205472616e73706f727465722063616e2063616c6c2074686973206660448201527f756e6374696f6e00000000000000000000000000000000000000000000000000606482015290519081900360840190fd5b600082116200110d576040805160e560020a62461bcd02815260206004820152601f60248201527f5472616e73706f727465722054797065206d75737420626520646566696e6500604482015290519081900360640190fd5b81600114156200119757604080517f638e9a3d0000000000000000000000000000000000000000000000000000000081523360048201529051600160a060020a0385169163638e9a3d91602480830192600092919082900301818387803b1580156200117857600080fd5b505af11580156200118d573d6000803e3d6000fd5b5050505062001340565b81600214156200120257604080517f638e9a3d0000000000000000000000000000000000000000000000000000000081523360048201529051600160a060020a0385169163638e9a3d91602480830192600092919082900301818387803b1580156200117857600080fd5b8160031415620012b157604080517f443c28d8000000000000000000000000000000000000000000000000000000008152600160a060020a03858116600483015233602483015291519183169163443c28d89160448082019260009290919082900301818387803b1580156200127757600080fd5b505af11580156200128c573d6000803e3d6000fd5b505050600160a060020a03821660009081526005602052604090208390555062001340565b81600414156200134057604080517fd39ff0e7000000000000000000000000000000000000000000000000000000008152600160a060020a03858116600483015233602483015291519183169163d39ff0e79160448082019260009290919082900301818387803b1580156200132657600080fd5b505af11580156200133b573d6000803e3d6000fd5b505050505b505050565b600060043360009081526001602052604090206002015460a060020a900460ff1660078111156200137257fe5b14620013dd576040805160e560020a62461bcd02815260206004820152602760248201527f4f6e6c792077686f6c6573616c65722043616e2063616c6c2074686973206675604482015260008051602062004eb4833981519152606482015290519081900360840190fd5b33600090815260086020526040902080548390811062000a0857fe5b60033360009081526001602052604090206002015460a060020a900460ff1660078111156200142457fe5b146200147e576040805160e560020a62461bcd028152602060048201526028602482015260008051602062004e94833981519152604482015260008051602062004ed4833981519152606482015290519081900360840190fd5b801515620014d6576040805160e560020a62461bcd02815260206004820152601c60248201527f52656365697665722054797065206d75737420626520646566696e6500000000604482015290519081900360640190fd5b600033888888878787620014e962003198565b600160a060020a03978816815260208101969096529386166040808701919091526060860193909352908516608085015290931660a083015260c082015290519081900360e001906000f08015801562001547573d6000803e3d6000fd5b50604080517f193fc3de000000000000000000000000000000000000000000000000000000008152336004820152602481018890529051919250600160a060020a0389169163193fc3de9160448082019260009290919082900301818387803b158015620015b457600080fd5b505af1158015620015c9573d6000803e3d6000fd5b5050336000818152600760209081526040808320805460018181018355918552838520018054600160a060020a038a8116600160a060020a031992831681179093558d8116808852600487528588208054958601815588528688209094018054909216831790915581865260058552948390206002905582519182529151938a169650939450927fa464e8d0d73596ec44ad2f56ca60a8fc4ef75e1b7b0b3f46fe1e073fb5da11b5929081900390910190a45050505050505050565b600054600160a060020a031633146200170e576040805160e560020a62461bcd02815260206004820152602260248201527f4f6e6c79206f776e65722063616e2063616c6c20746869732066756e6374696f60448201527f6e2e000000000000000000000000000000000000000000000000000000000000606482015290519081900360840190fd5b6000600160a060020a03821660009081526001602052604090206002015460a060020a900460ff1660078111156200174257fe5b141562001799576040805160e560020a62461bcd02815260206004820152601360248201527f55736572206e6f74207265676973746572656400000000000000000000000000604482015290519081900360640190fd5b600160a060020a038116600081815260016020526040902080546002909101547fb5f04dfc1ccfefb366c4dc7a23670362462e0a415afb89d8cba1fb657e264c96919060a060020a900460ff166007811115620017f257fe5b6040805192835260208301919091528051918290030190a2600160a060020a03166000908152600160205260409020600201805474ff0000000000000000000000000000000000000000191674070000000000000000000000000000000000000000179055565b600060053360009081526001602052604090206002015460a060020a900460ff1660078111156200188657fe5b14620018e0576040805160e560020a62461bcd028152602060048201526028602482015260008051602062004e34833981519152604482015260008051602062004e74833981519152606482015290519081900360840190fd5b50336000908152600c602052604090205490565b60043360009081526001602052604090206002015460a060020a900460ff1660078111156200191f57fe5b148062001954575060053360009081526001602052604090206002015460a060020a900460ff1660078111156200195257fe5b145b1515620019d1576040805160e560020a62461bcd02815260206004820152603660248201527f4f6e6c792057686f6c6573616c657220616e642044697374726962757465722060448201527f63616e2063616c6c20746869732066756e6374696f6e00000000000000000000606482015290519081900360840190fd5b604080517f52b999680000000000000000000000000000000000000000000000000000000081523360048201529051600091600160a060020a038516916352b999689160248082019260209290919082900301818787803b15801562001a3657600080fd5b505af115801562001a4b573d6000803e3d6000fd5b505050506040513d602081101562001a6257600080fd5b50519050600181141562001aae57336000908152600860209081526040822080546001810182559083529120018054600160a060020a031916600160a060020a03851617905562001340565b80600214156200134057336000908152600b6020908152604080832080546001810182559084529183209091018054600160a060020a031916600160a060020a03871690811790915581517f01a9a23e000000000000000000000000000000000000000000000000000000008152915190916301a9a23e916004808301926060929190829003018186803b15801562001b4657600080fd5b505afa15801562001b5b573d6000803e3d6000fd5b505050506040513d601f19601f82011682018060405250606081101562001b8157600080fd5b5051600160a060020a0316146200134057604080517ff4c07229000000000000000000000000000000000000000000000000000000008152600160a060020a03858116600483015233602483015291519184169163f4c072299160448082019260009290919082900301818387803b1580156200132657600080fd5b600054600160a060020a0316331462001c86576040805160e560020a62461bcd02815260206004820152602260248201527f4f6e6c79206f776e65722063616e2063616c6c20746869732066756e6374696f60448201527f6e2e000000000000000000000000000000000000000000000000000000000000606482015290519081900360840190fd5b6000600160a060020a03851660009081526001602052604090206002015460a060020a900460ff16600781111562001cba57fe5b1462001d10576040805160e560020a62461bcd02815260206004820152601760248201527f5573657220416c72656164792072656769737465726564000000000000000000604482015290519081900360640190fd5b600160a060020a03841660008181526001602081905260409091208581559081018490556002018054600160a060020a031916909117905580600781111562001d5557fe5b600160a060020a0385166000908152600160205260409020600201805474ff0000000000000000000000000000000000000000191660a060020a83600781111562001d9c57fe5b0217905550600280546001810182556000919091527f405787fa12a823e0f2b7631cc41b3ba8828b3321ca811111fa75cd3aa3bb5ace018054600160a060020a038616600160a060020a031990911681179091556040805185815290517f33a7170f028b1e4f5ba321064a00ed820856a920c7f9c6636fbcf385427b1b0f9181900360200190a250505050565b600060033360009081526001602052604090206002015460a060020a900460ff16600781111562001e5657fe5b1462001ed2576040805160e560020a62461bcd02815260206004820152602960248201527f4f6e6c79204d616e7566616374757265722043616e2063616c6c20746869732060448201527f66756e6374696f6e2e0000000000000000000000000000000000000000000000606482015290519081900360840190fd5b33600090815260076020526040902080548390811062000a0857fe5b600060043360009081526001602052604090206002015460a060020a900460ff16600781111562001f1b57fe5b1462001f86576040805160e560020a62461bcd02815260206004820152602760248201527f4f6e6c792057686f6c6573616c65722043616e2063616c6c2074686973206675604482015260008051602062004eb4833981519152606482015290519081900360840190fd5b33600090815260096020526040902080548390811062000a0857fe5b600060043360009081526001602052604090206002015460a060020a900460ff16600781111562001fcf57fe5b146200203a576040805160e560020a62461bcd02815260206004820152602760248201527f4f6e6c792057686f6c6573616c65722043616e2063616c6c2074686973206675604482015260008051602062004eb4833981519152606482015290519081900360840190fd5b503360009081526009602052604090205490565b600060033360009081526001602052604090206002015460a060020a900460ff1660078111156200207b57fe5b14620020d5576040805160e560020a62461bcd028152602060048201526028602482015260008051602062004e94833981519152604482015260008051602062004ed4833981519152606482015290519081900360840190fd5b503360009081526006602052604090205490565b60025490565b600060023360009081526001602052604090206002015460a060020a900460ff1660078111156200211c57fe5b1462002198576040805160e560020a62461bcd02815260206004820152602760248201527f4f6e6c79205472616e73706f727465722043616e2063616c6c2074686973206660448201527f756e6374696f6e00000000000000000000000000000000000000000000000000606482015290519081900360840190fd5b503360009081526004602052604090205490565b600054600160a060020a031681565b600160a060020a039081166000908152600d60205260409020541690565b600160a060020a0381166000908152600f602052604081205460ff1660048111156200220157fe5b92915050565b60033360009081526001602052604090206002015460a060020a900460ff1660078111156200223257fe5b146200228c576040805160e560020a62461bcd028152602060048201526028602482015260008051602062004e94833981519152604482015260008051602062004ed4833981519152606482015290519081900360840190fd5b604080517f52b999680000000000000000000000000000000000000000000000000000000081523360048201529051600160a060020a038316916352b9996891602480830192600092919082900301818387803b158015620022ed57600080fd5b505af115801562002302573d6000803e3d6000fd5b5050336000908152600660209081526040822080546001810182559083529120018054600160a060020a031916600160a060020a0394909416939093179092555050565b60053360009081526001602052604090206002015460a060020a900460ff1660078111156200237157fe5b14801562002403575082600160a060020a03166301a9a23e6040518163ffffffff1660e060020a02815260040160606040518083038186803b158015620023b757600080fd5b505afa158015620023cc573d6000803e3d6000fd5b505050506040513d601f19601f820116820180604052506060811015620023f257600080fd5b5060200151600160a060020a031633145b1515620024a6576040805160e560020a62461bcd02815260206004820152604360248201527f4f6e6c79204469737472696275746572206f722063757272656e74206f776e6560448201527f72206f66207061636b6167652063616e2063616c6c20746869732066756e637460648201527f696f6e0000000000000000000000000000000000000000000000000000000000608482015290519081900360a40190fd5b600083338484620024b6620031a9565b600160a060020a039485168152928416602084015290831660408084019190915292166060820152905190819003608001906000f080158015620024fe573d6000803e3d6000fd5b50336000908152600c60209081526040808320805460018181018355918552838520018054600160a060020a03968716600160a060020a031991821681179092559986168552600d845282852080548b1682179055979094168352600480835281842080549586018155845282842090940180549098168717909755948152600590945293909220929092555050565b600060053360009081526001602052604090206002015460a060020a900460ff166007811115620025bb57fe5b1462002615576040805160e560020a62461bcd028152602060048201526028602482015260008051602062004e34833981519152604482015260008051602062004e74833981519152606482015290519081900360840190fd5b50336000908152600b602052604090205490565b60013360009081526001602052604090206002015460a060020a900460ff1660078111156200265457fe5b14620026bf576040805160e560020a62461bcd028152602060048201526025602482015260008051602062004e5483398151915260448201527f74696f6e20000000000000000000000000000000000000000000000000000000606482015290519081900360840190fd5b600033878787878787620026d2620031ba565b600160a060020a039788168152602081019690965260408087019590955260608601939093526080850191909152841660a084015290921660c082015290519081900360e001906000f0801580156200272f573d6000803e3d6000fd5b50336000818152600360209081526040808320805460018181018355918552838520018054600160a060020a03808916600160a060020a031992831681179093558b811680885260048752858820805480870182559089528789200180549093168417909255828752600586529584902092909255825191825291519596509287169490927f9dbe7d9fdd28b9b1c2ffe79a40f7beff124537ed0d7a47555d009e0271fc613392908290030190a450505050505050565b60008060023360009081526001602052604090206002015460a060020a900460ff1660078111156200281457fe5b146200287e576040805160e560020a62461bcd0281526020600482015260248082015260008051602062004e5483398151915260448201527f74696f6e00000000000000000000000000000000000000000000000000000000606482015290519081900360840190fd5b3360009081526004602052604090208054849081106200289a57fe5b60009182526020808320909101543383526004909152604082208054600160a060020a039092169260059290919087908110620028d357fe5b6000918252602080832090910154600160a060020a031683528201929092526040019020549092509050915091565b60063360009081526001602052604090206002015460a060020a900460ff1660078111156200292d57fe5b14620029a9576040805160e560020a62461bcd02815260206004820152602360248201527f4f6e6c7920506861726d612043616e2063616c6c20746869732066756e63746960448201527f6f6e2e0000000000000000000000000000000000000000000000000000000000606482015290519081900360840190fd5b604080517f32a60e00000000000000000000000000000000000000000000000000000000008152600160a060020a0384811660048301523360248301529151918316916332a60e009160448082019260009290919082900301818387803b15801562002a1457600080fd5b505af115801562002a29573d6000803e3d6000fd5b5050336000908152600e60209081526040822080546001808201835591845291909220018054600160a060020a031916600160a060020a038716179055915062002a709050565b600160a060020a0383166000908152600f60205260409020805460ff1916600183600481111562002a9d57fe5b02179055505050565b600060063360009081526001602052604090206002015460a060020a900460ff16600781111562002ad357fe5b1462002b75576040805160e560020a62461bcd02815260206004820152604260248201527f4f6e6c792057686f6c6573616c6572206f722063757272656e74206f776e657260448201527f206f66207061636b6167652063616e2063616c6c20746869732066756e63746960648201527f6f6e000000000000000000000000000000000000000000000000000000000000608482015290519081900360a40190fd5b50336000908152600e602052604090205490565b600060063360009081526001602052604090206002015460a060020a900460ff16600781111562002bb657fe5b1462002c58576040805160e560020a62461bcd02815260206004820152604260248201527f4f6e6c792057686f6c6573616c6572206f722063757272656e74206f776e657260448201527f206f66207061636b6167652063616e2063616c6c20746869732066756e63746960648201527f6f6e000000000000000000000000000000000000000000000000000000000000608482015290519081900360a40190fd5b336000908152600e6020526040902080548390811062000a0857fe5b60063360009081526001602052604090206002015460a060020a900460ff16600781111562002c9f57fe5b14801562002d31575081600160a060020a03166301a9a23e6040518163ffffffff1660e060020a02815260040160606040518083038186803b15801562002ce557600080fd5b505afa15801562002cfa573d6000803e3d6000fd5b505050506040513d601f19601f82011682018060405250606081101562002d2057600080fd5b5060400151600160a060020a031633145b151562002dae576040805160e560020a62461bcd02815260206004820152603e60248201527f4f6e6c7920506861726d61206f722063757272656e74206f776e6572206f662060448201527f7061636b6167652063616e2063616c6c20746869732066756e6374696f6e0000606482015290519081900360840190fd5b6001600160a060020a0383166000908152600f602052604090205460ff16600481111562002dd857fe5b1462002e2e576040805160e560020a62461bcd02815260206004820152601a60248201527f4d65646963696e65204d75737420626520617420506861726d61000000000000604482015290519081900360640190fd5b80600481111562002e3b57fe5b600160a060020a0383166000908152600f60205260409020805460ff1916600183600481111562002e6857fe5b021790555060408051600160a060020a038416815260208101839052815133927f778762ccb04f5a8838ed8914b13eb6f118224696959cbfa0cfea54133f76a7d5928290030190a25050565b600060053360009081526001602052604090206002015460a060020a900460ff16600781111562002ee157fe5b1462002f3b576040805160e560020a62461bcd028152602060048201526028602482015260008051602062004e34833981519152604482015260008051602062004e74833981519152606482015290519081900360840190fd5b336000908152600c6020526040902080548390811062000a0857fe5b60043360009081526001602052604090206002015460a060020a900460ff16600781111562002f8257fe5b14801562003011575082600160a060020a03166301a9a23e6040518163ffffffff1660e060020a02815260040160606040518083038186803b15801562002fc857600080fd5b505afa15801562002fdd573d6000803e3d6000fd5b505050506040513d601f19601f8201168201806040525060608110156200300357600080fd5b5051600160a060020a031633145b1515620030b4576040805160e560020a62461bcd02815260206004820152604260248201527f4f6e6c792057686f6c6573616c6572206f722063757272656e74206f776e657260448201527f206f66207061636b6167652063616e2063616c6c20746869732066756e63746960648201527f6f6e000000000000000000000000000000000000000000000000000000000000608482015290519081900360a40190fd5b600083338484620030c4620031cb565b600160a060020a039485168152928416602084015290831660408084019190915292166060820152905190819003608001906000f0801580156200310c573d6000803e3d6000fd5b50336000908152600960209081526040808320805460018181018355918552838520018054600160a060020a03968716600160a060020a031991821681179092559986168552600a845282852080548b16821790559790941683526004825280832080549485018155835281832090930180549097168617909655938452600590945250502060039055565b604051610b9180620031dd83390190565b6040516104bb8062003d6e83390190565b604051610750806200422983390190565b6040516104bb80620049798339019056fe608060405234801561001057600080fd5b5060405160e080610b91833981018060405260e081101561003057600080fd5b508051602082015160408301516060840151608085015160a086015160c09096015160008054600160a060020a0319908116600160a060020a03808a169182179093556005805483169091179055600187815560028054831684891617905560038690556004805490921692851692909217905595969495939492939192918114156100d65760068054600160a060020a031916600160a060020a0384161790556100fb565b80600214156100fb5760078054600160a060020a031916600160a060020a0384161790555b50505050505050610a80806101116000396000f3fe608060405260043610610092577c0100000000000000000000000000000000000000000000000000000000600035046301a9a23e81146100975780634175699d146100e457806352b9996814610119578063638e9a3d1461015e578063952565cf14610191578063a19ffd60146101c4578063bd786835146101ff578063d2f3fcc71461023a578063e002c8a51461024f575b600080fd5b3480156100a357600080fd5b506100ac6102a0565b6040518082606080838360005b838110156100d15781810151838201526020016100b9565b5050505090500191505060405180910390f35b3480156100f057600080fd5b506101176004803603602081101561010757600080fd5b5035600160a060020a03166102db565b005b34801561012557600080fd5b5061014c6004803603602081101561013c57600080fd5b5035600160a060020a031661036a565b60408051918252519081900360200190f35b34801561016a57600080fd5b506101176004803603602081101561018157600080fd5b5035600160a060020a03166105d7565b34801561019d57600080fd5b50610117600480360360208110156101b457600080fd5b5035600160a060020a03166107a4565b3480156101d057600080fd5b50610117600480360360408110156101e757600080fd5b50600160a060020a0381358116916020013516610836565b34801561020b57600080fd5b506101176004803603604081101561022257600080fd5b50600160a060020a0381358116916020013516610914565b34801561024657600080fd5b5061014c6109ce565b34801561025b57600080fd5b506102646109ee565b60408051600160a060020a0396871681526020810195909552928516848401526060840191909152909216608082015290519081900360a00190f35b6102a8610a15565b5060408051606081018252600654600160a060020a03908116825260075481166020830152600854169181019190915290565b600854600160a060020a03828116911614610340576040805160e560020a62461bcd02815260206004820152601e60248201527f5468697320506861726d61206973206e6f74204173736f6369617465642e0000604482015290519081900360640190fd5b60065b6008805460a060020a60ff02191660a060020a83600681111561036257fe5b021790555050565b600654600090600160a060020a03838116911614806103965750600754600160a060020a038381169116145b1515610412576040805160e560020a62461bcd02815260206004820152603f60248201527f4f6e6c79204173736f63696174652057686f6c6573616c6572206f722044697360448201527f74727562757465722063616e2063616c6c20746869732066756e6374696f6e00606482015290519081900360840190fd5b60085460019060a060020a900460ff16600681111561042d57fe5b1015610483576040805160e560020a62461bcd02815260206004820152601960248201527f50726f64756374206e6f74207069636b65642075702079657400000000000000604482015290519081900360640190fd5b600654600160a060020a0383811691161480156104b75750600160085460a060020a900460ff1660068111156104b557fe5b145b1561052a576008805460a060020a60ff021916740300000000000000000000000000000000000000001790556006546004546040805160028152600360208201528151600160a060020a0394851694909316923092600080516020610a35833981519152928290030190a45060016105d2565b600754600160a060020a03838116911614801561055e5750600260085460a060020a900460ff16600681111561055c57fe5b145b156105d2576008805460a060020a60ff0219167404000000000000000000000000000000000000000017905560075460048054604080516003815260208101939093528051600160a060020a0394851694909216923092600080516020610a35833981519152929181900390910190a45060025b919050565b600454600160a060020a03828116911614610662576040805160e560020a62461bcd02815260206004820152602d60248201527f4f6e6c79204173736f636961746520536869707065722063616e2063616c6c2060448201527f746869732066756e6374696f6e00000000000000000000000000000000000000606482015290519081900360840190fd5b600060085460a060020a900460ff16600681111561067c57fe5b146106d1576040805160e560020a62461bcd02815260206004820152601c60248201527f5061636b616765206d75737420626520617420537570706c6965722e00000000604482015290519081900360640190fd5b600654600160a060020a03161561073b576008805460a060020a60ff02191660a060020a17905560065460045460408051600180825260208201528151600160a060020a0394851694909316923092600080516020610a35833981519152928290030190a46107a1565b6008805460a060020a60ff0219167402000000000000000000000000000000000000000017905560075460045460408051600180825260208201528151600160a060020a0394851694909316923092600080516020610a35833981519152928290030190a45b50565b600754600160a060020a0382811691161461082f576040805160e560020a62461bcd02815260206004820152602360248201527f54686973204469737472696275746572206973206e6f74204173736f6369617460448201527f65642e0000000000000000000000000000000000000000000000000000000000606482015290519081900360840190fd5b6004610343565b600754600160a060020a038281169116146108c1576040805160e560020a62461bcd02815260206004820152602360248201527f54686973204469737472696275746572206973206e6f74204173736f6369617460448201527f65642e0000000000000000000000000000000000000000000000000000000000606482015290519081900360840190fd5b6008805473ffffffffffffffffffffffffffffffffffffffff1916600160a060020a03841617905560055b6008805460a060020a60ff02191660a060020a83600681111561090b57fe5b02179055505050565b600654600160a060020a0382811691161461099f576040805160e560020a62461bcd02815260206004820152602260248201527f746869732057686f6c6573616c6572206973206e6f74204173736f636961746560448201527f642e000000000000000000000000000000000000000000000000000000000000606482015290519081900360840190fd5b6007805473ffffffffffffffffffffffffffffffffffffffff1916600160a060020a03841617905560026108ec565b60085460009060a060020a900460ff1660068111156109e957fe5b905090565b600554600154600254600354600454600160a060020a039485169492831692169091929394565b606060405190810160405280600390602082028038833950919291505056fe7e89c4b1a4e2b51aae84eb1f90e8a34cb792ece5ac5cb63db4830c891220b28da165627a7a723058203886ad24551b79a3e0dc1eee080b4f10385927bbe408dc9d58ee853bcc6457db0029608060405234801561001057600080fd5b506040516080806104bb8339810180604052608081101561003057600080fd5b5080516020820151604083015160609093015160008054600160a060020a0319908116600160a060020a03948516908117835560018054831696861696909617909555600280548216909517909455600380548516958416959095179094556004805490931691161760a060020a60ff02191690556104069081906100b590396000f3fe608060405260043610610050577c0100000000000000000000000000000000000000000000000000000000600035046332a60e008114610055578063d2f3fcc714610092578063d39ff0e7146100b9575b600080fd5b34801561006157600080fd5b506100906004803603604081101561007857600080fd5b50600160a060020a03813581169160200135166100f4565b005b34801561009e57600080fd5b506100a7610262565b60408051918252519081900360200190f35b3480156100c557600080fd5b50610090600480360360408110156100dc57600080fd5b50600160a060020a0381358116916020013516610293565b600454600160a060020a0382811691161461019657604080517f08c379a000000000000000000000000000000000000000000000000000000000815260206004820152603060248201527f4f6e6c79204173736f6369617465642072656365697665722063616e2063616c60448201527f6c20746869732066756e6374696f6e2e00000000000000000000000000000000606482015290519081900360840190fd5b600480546002919074ff000000000000000000000000000000000000000019167401000000000000000000000000000000000000000083021790555081600160a060020a0316634175699d826040518263ffffffff167c01000000000000000000000000000000000000000000000000000000000281526004018082600160a060020a0316600160a060020a03168152602001915050600060405180830381600087803b15801561024657600080fd5b505af115801561025a573d6000803e3d6000fd5b505050505050565b60045460009074010000000000000000000000000000000000000000900460ff16600281111561028e57fe5b905090565b600354600160a060020a0382811691161461033557604080517f08c379a000000000000000000000000000000000000000000000000000000000815260206004820152602f60248201527f4f6e6c79204173736f63696174656420736869707065722063616e2063616c6c60448201527f20746869732066756e6374696f6e2e0000000000000000000000000000000000606482015290519081900360840190fd5b6004805474ff000000000000000000000000000000000000000019167401000000000000000000000000000000000000000017808255600254604080517fa19ffd60000000000000000000000000000000000000000000000000000000008152600160a060020a03938416948101949094529082166024840152519084169163a19ffd6091604480830192600092919082900301818387803b15801561024657600080fdfea165627a7a723058206959ba891c1f02b4fa1be390be55ca2011c2ea2cde2a7e91529ffa10be684cc80029608060405234801561001057600080fd5b5060405160e080610750833981018060405260e081101561003057600080fd5b508051602082015160408301516060840151608085015160a086015160c09096015160008054600160a060020a0319908116600160a060020a03988916908117835560018054309084161790556002979097556003959095556004939093556005919091556006829055600780548416968616969096179095556008805483169490951693909317909355600980549093161760a060020a60ff0219169091556106709081906100e090396000f3fe608060405260043610610066577c01000000000000000000000000000000000000000000000000000000006000350463193fc3de811461006b57806352b99968146100a6578063638e9a3d146100d9578063807235201461010c5780639229629914610171575b600080fd5b34801561007757600080fd5b506100a46004803603604081101561008e57600080fd5b50600160a060020a038135169060200135610198565b005b3480156100b257600080fd5b506100a4600480360360208110156100c957600080fd5b5035600160a060020a03166102fd565b3480156100e557600080fd5b506100a4600480360360208110156100fc57600080fd5b5035600160a060020a0316610480565b34801561011857600080fd5b506101216105f1565b6040805198895260208901979097528787019590955260608701939093526080860191909152600160a060020a0390811660a086015290811660c08501521660e083015251908190036101000190f35b34801561017d57600080fd5b50610186610624565b60408051918252519081900360200190f35b60055481106101f1576040805160e560020a62461bcd02815260206004820152601a60248201527f52616d204d6174657269616c204e6f7420617661696c61626c65000000000000604482015290519081900360640190fd5b600854600160a060020a0383811691161461027c576040805160e560020a62461bcd02815260206004820152603260248201527f4f6e6c79204173736f6369617465204d616e7566616374757265722063616e2060448201527f63616c6c20746869732066756e6374696f6e0000000000000000000000000000606482015290519081900360840190fd5b600260095460a060020a900460ff16600281111561029657fe5b146102eb576040805160e560020a62461bcd02815260206004820152601960248201527f50726f64756374206e6f742064656c6576697265642079657400000000000000604482015290519081900360640190fd5b60068190556005805491909103905550565b600854600160a060020a03828116911614610388576040805160e560020a62461bcd02815260206004820152603260248201527f4f6e6c79204173736f6369617465204d616e7566616374757265722063616e2060448201527f63616c6c20746869732066756e6374696f6e0000000000000000000000000000606482015290519081900360840190fd5b600160095460a060020a900460ff1660028111156103a257fe5b146103f7576040805160e560020a62461bcd02815260206004820152601960248201527f50726f64756374206e6f74207069636b65642075702079657400000000000000604482015290519081900360640190fd5b6009805474ff00000000000000000000000000000000000000001916740200000000000000000000000000000000000000001790556008546007546040805160018152600260208201528151600160a060020a03948516949093169230927f7e89c4b1a4e2b51aae84eb1f90e8a34cb792ece5ac5cb63db4830c891220b28d928290030190a450565b600754600160a060020a0382811691161461050b576040805160e560020a62461bcd02815260206004820152602d60248201527f4f6e6c79204173736f636961746520536869707065722063616e2063616c6c2060448201527f746869732066756e6374696f6e00000000000000000000000000000000000000606482015290519081900360840190fd5b600060095460a060020a900460ff16600281111561052557fe5b1461057a576040805160e560020a62461bcd02815260206004820152601c60248201527f5061636b616765206d75737420626520617420537570706c6965722e00000000604482015290519081900360640190fd5b6009805474ff0000000000000000000000000000000000000000191660a060020a17905560085460075460408051600180825260208201528151600160a060020a03948516949093169230927f7e89c4b1a4e2b51aae84eb1f90e8a34cb792ece5ac5cb63db4830c891220b28d928290030190a450565b600254600354600454600554600654600754600854600954600160a060020a039283169291821691169091929394959697565b60095460009060a060020a900460ff16600281111561063f57fe5b90509056fea165627a7a723058205dc003f3130b63bccb89ba85799fed1c9af3876027e8d4ead34dfae577c66fb80029608060405234801561001057600080fd5b506040516080806104bb8339810180604052608081101561003057600080fd5b5080516020820151604083015160609093015160008054600160a060020a0319908116600160a060020a03948516908117835560018054831696861696909617909555600280548216909517909455600380548516958416959095179094556004805490931691161760a060020a60ff02191690556104069081906100b590396000f3fe608060405260043610610050577c01000000000000000000000000000000000000000000000000000000006000350463443c28d88114610055578063d2f3fcc714610092578063f4c07229146100b9575b600080fd5b34801561006157600080fd5b506100906004803603604081101561007857600080fd5b50600160a060020a03813581169160200135166100f4565b005b34801561009e57600080fd5b506100a7610257565b60408051918252519081900360200190f35b3480156100c557600080fd5b50610090600480360360408110156100dc57600080fd5b50600160a060020a0381358116916020013516610288565b600354600160a060020a0382811691161461019657604080517f08c379a000000000000000000000000000000000000000000000000000000000815260206004820152602f60248201527f4f6e6c79204173736f63696174656420736869707065722063616e2063616c6c60448201527f20746869732066756e6374696f6e2e0000000000000000000000000000000000606482015290519081900360840190fd5b6004805474ff000000000000000000000000000000000000000019167401000000000000000000000000000000000000000017808255600254604080517fbd786835000000000000000000000000000000000000000000000000000000008152600160a060020a03938416948101949094529082166024840152519084169163bd78683591604480830192600092919082900301818387803b15801561023b57600080fd5b505af115801561024f573d6000803e3d6000fd5b505050505050565b60045460009074010000000000000000000000000000000000000000900460ff16600281111561028357fe5b905090565b600454600160a060020a0382811691161461032a57604080517f08c379a000000000000000000000000000000000000000000000000000000000815260206004820152603060248201527f4f6e6c79204173736f6369617465642072656365697665722063616e2063616c60448201527f6c20746869732066756e6374696f6e2e00000000000000000000000000000000606482015290519081900360840190fd5b600480546002919074ff000000000000000000000000000000000000000019167401000000000000000000000000000000000000000083021790555081600160a060020a031663952565cf826040518263ffffffff167c01000000000000000000000000000000000000000000000000000000000281526004018082600160a060020a0316600160a060020a03168152602001915050600060405180830381600087803b15801561023b57600080fdfea165627a7a72305820c9edf01165fa0011c157f68f74a5d0556515581606402a39422209a62f74c4d600294f6e6c792044697374726962757465722043616e2063616c6c207468697320664f6e6c7920537570706c6965722043616e2063616c6c20746869732066756e63756e6374696f6e2e0000000000000000000000000000000000000000000000004f6e6c79206d616e7566616374757265722063616e2063616c6c2074686973206e6374696f6e2e0000000000000000000000000000000000000000000000000066756e6374696f6e000000000000000000000000000000000000000000000000a165627a7a723058200ae031b3ba4a775502655ce350d258a381d9195cc4640f475adf7b8d09b7a5e00029",
  "source": "pragma solidity >=0.4.25 <0.6.0;\r\n\r\nimport \"./RawMaterials.sol\";\r\nimport \"./Medicine.sol\";\r\nimport \"./MedicineW_D.sol\";\r\nimport \"./MedicineD_P.sol\";\r\n\r\n/// @title Blockchain : Pharmaceutical SupplyChain\r\n/// @author Yash Gupta\r\ncontract SupplyChain {\r\n    address public Owner;\r\n    struct UserInfo {\r\n        bytes32 name;\r\n        bytes32 location;\r\n        address ethAddress;\r\n        roles role;\r\n    }\r\n    mapping(address => UserInfo) UsersDetails;\r\n    address[] users;\r\n    mapping(address => address[]) supplierRawProductInfo;\r\n    mapping(address => address[]) transporterConsignmentInfo;\r\n    mapping(address => uint256) consignmentTransporterType;\r\n    mapping(address => address[]) RawPackagesAtManufacturer;\r\n    mapping(address => address[]) ManufactureredMedicineBatches;\r\n    mapping(address => address[]) MedicineBatchesAtWholesaler;\r\n    mapping(address => address[]) MedicineWtoD;\r\n    mapping(address => address) MedicineWtoDTxContract;\r\n    mapping(address => address[]) MedicineBatchAtDistributer;\r\n    mapping(address => address[]) MedicineDtoP;\r\n    mapping(address => address) MedicineDtoPTxContract;\r\n    mapping(address => address[]) MedicineBatchAtPharma;\r\n    mapping(address => salestatus) sale;\r\n\r\n    /// @notice\r\n    /// @dev Initiate SupplyChain Contract\r\n    constructor() public {\r\n        Owner = msg.sender;\r\n    }\r\n\r\n    /********************************************** Owner Section *********************************************/\r\n\r\n    /// @dev Validate Owner\r\n    modifier onlyOwner() {\r\n        require(msg.sender == Owner, \"Only owner can call this function.\");\r\n        _;\r\n    }\r\n\r\n    enum roles {\r\n        norole,\r\n        supplier,\r\n        transporter,\r\n        manufacturer,\r\n        wholesaler,\r\n        distributer,\r\n        pharma,\r\n        revoke\r\n    }\r\n    enum salestatus {\r\n        notfound,\r\n        atpharma,\r\n        sold,\r\n        expire,\r\n        damaged\r\n    }\r\n\r\n    event UserRegister(address indexed EthAddress, bytes32 Name);\r\n    event UserRoleRevoked(\r\n        address indexed EthAddress,\r\n        bytes32 Name,\r\n        uint256 Role\r\n    );\r\n    event UserRoleRessigne(\r\n        address indexed EthAddress,\r\n        bytes32 Name,\r\n        uint256 Role\r\n    );\r\n    event RawSupplyInit(\r\n        address indexed ProductID,\r\n        address indexed Supplier,\r\n        address Shipper,\r\n        address indexed Receiver\r\n    );\r\n    event MedicineNewBatch(\r\n        address indexed BatchId,\r\n        address indexed Manufacturer,\r\n        address shipper,\r\n        address indexed Receiver\r\n    );\r\n    event MedicineStatus(\r\n        address BatchID,\r\n        address indexed Pharma,\r\n        uint256 status\r\n    );\r\n\r\n    /// @notice\r\n    /// @dev Register New user by Owner\r\n    /// @param EthAddress Ethereum Network Address of User\r\n    /// @param Name User name\r\n    /// @param Location User Location\r\n    /// @param Role User Role\r\n    function registerUser(\r\n        address EthAddress,\r\n        bytes32 Name,\r\n        bytes32 Location,\r\n        uint256 Role\r\n    ) public onlyOwner {\r\n        require(\r\n            UsersDetails[EthAddress].role == roles.norole,\r\n            \"User Already registered\"\r\n        );\r\n        UsersDetails[EthAddress].name = Name;\r\n        UsersDetails[EthAddress].location = Location;\r\n        UsersDetails[EthAddress].ethAddress = EthAddress;\r\n        UsersDetails[EthAddress].role = roles(Role);\r\n        users.push(EthAddress);\r\n        emit UserRegister(EthAddress, Name);\r\n    }\r\n\r\n    /// @notice\r\n    /// @dev Revoke users role\r\n    /// @param userAddress User Ethereum Network Address\r\n    function revokeRole(address userAddress) public onlyOwner {\r\n        require(\r\n            UsersDetails[userAddress].role != roles.norole,\r\n            \"User not registered\"\r\n        );\r\n        emit UserRoleRevoked(\r\n            userAddress,\r\n            UsersDetails[userAddress].name,\r\n            uint256(UsersDetails[userAddress].role)\r\n        );\r\n        UsersDetails[userAddress].role = roles(7);\r\n    }\r\n\r\n    /// @notice\r\n    /// @dev Reassigne new role to User\r\n    /// @param userAddress User Ethereum Network Address\r\n    /// @param Role Role to assigne\r\n    function reassigneRole(address userAddress, uint256 Role) public onlyOwner {\r\n        require(\r\n            UsersDetails[userAddress].role != roles.norole,\r\n            \"User not registered\"\r\n        );\r\n        UsersDetails[userAddress].role = roles(Role);\r\n        emit UserRoleRessigne(\r\n            userAddress,\r\n            UsersDetails[userAddress].name,\r\n            uint256(UsersDetails[userAddress].role)\r\n        );\r\n    }\r\n\r\n    /********************************************** User Section **********************************************/\r\n\r\n    /// @notice\r\n    /// @dev Get User Information/ Profile\r\n    /// @param User User Ethereum Network Address\r\n    /// @return User Details\r\n    function getUserInfo(address User)\r\n        public\r\n        view\r\n        returns (\r\n            bytes32 name,\r\n            bytes32 location,\r\n            address ethAddress,\r\n            roles role\r\n        )\r\n    {\r\n        return (\r\n            UsersDetails[User].name,\r\n            UsersDetails[User].location,\r\n            UsersDetails[User].ethAddress,\r\n            UsersDetails[User].role\r\n        );\r\n    }\r\n\r\n    /// @notice\r\n    /// @dev Get Number of registered Users\r\n    /// @return Number of registered Users\r\n    function getUsersCount() public view returns (uint256 count) {\r\n        return users.length;\r\n    }\r\n\r\n    /// @notice\r\n    /// @dev Get User by Index value of stored data\r\n    /// @param index Indexed Number\r\n    /// @return User Details\r\n    function getUserbyIndex(uint256 index)\r\n        public\r\n        view\r\n        returns (\r\n            bytes32 name,\r\n            bytes32 location,\r\n            address ethAddress,\r\n            roles role\r\n        )\r\n    {\r\n        return getUserInfo(users[index]);\r\n    }\r\n\r\n    /********************************************** Supplier Section ******************************************/\r\n\r\n    /// @notice\r\n    /// @dev Create new raw package by Supplier\r\n    /// @param Des Transporter Ethereum Network Address\r\n    /// @param Rcvr Manufacturer Ethereum Network Address\r\n    function createRawPackage(\r\n        bytes32 Des,\r\n        bytes32 FN,\r\n        bytes32 Loc,\r\n        uint256 Quant,\r\n        address Shpr,\r\n        address Rcvr\r\n    ) public {\r\n        require(\r\n            UsersDetails[msg.sender].role == roles.supplier,\r\n            \"Only Supplier Can call this function \"\r\n        );\r\n        RawMaterials rawData = new RawMaterials(\r\n            msg.sender,\r\n            Des,\r\n            FN,\r\n            Loc,\r\n            Quant,\r\n            Shpr,\r\n            Rcvr\r\n        );\r\n        supplierRawProductInfo[msg.sender].push(address(rawData));\r\n        transporterConsignmentInfo[Shpr].push(address(rawData));\r\n        consignmentTransporterType[address(rawData)] = 1;\r\n        emit RawSupplyInit(address(rawData), msg.sender, Shpr, Rcvr);\r\n    }\r\n\r\n    /// @notice\r\n    /// @dev  Get Count of created package by supplier(caller)\r\n    /// @return Number of packages\r\n    function getPackagesCountS() public view returns (uint256 count) {\r\n        require(\r\n            UsersDetails[msg.sender].role == roles.supplier,\r\n            \"Only Supplier Can call this function\"\r\n        );\r\n        return supplierRawProductInfo[msg.sender].length;\r\n    }\r\n\r\n    /// @notice\r\n    /// @dev Get PackageID by Indexed value of stored data\r\n    /// @param index Indexed Value\r\n    /// @return PackageID\r\n    function getPackageIdByIndexS(uint256 index)\r\n        public\r\n        view\r\n        returns (address packageID)\r\n    {\r\n        require(\r\n            UsersDetails[msg.sender].role == roles.supplier,\r\n            \"Only Supplier Can call this function\"\r\n        );\r\n        return supplierRawProductInfo[msg.sender][index];\r\n    }\r\n\r\n    /********************************************** Transporter Section ******************************************/\r\n\r\n    /// @notice\r\n    /// @dev Load Consingment fot transport one location to another.\r\n    /// @param pid PackageID or MedicineID\r\n    /// @param transportertype Transporter Type on the basic of tx between Roles\r\n    /// @param cid Sub Contract ID for Consingment transaction\r\n    function loadConsingment(\r\n        address pid,\r\n        uint256 transportertype,\r\n        address cid\r\n    ) public {\r\n        require(\r\n            UsersDetails[msg.sender].role == roles.transporter,\r\n            \"Only Transporter can call this function\"\r\n        );\r\n        require(transportertype > 0, \"Transporter Type must be define\");\r\n        if (transportertype == 1) {\r\n            // Supplier to Manufacturer\r\n            RawMaterials(pid).pickPackage(msg.sender);\r\n        } else if (transportertype == 2) {\r\n            // Manufacturer to Wholesaler OR Manufacturer to Distributer\r\n            Medicine(pid).pickPackage(msg.sender);\r\n        } else if (transportertype == 3) {\r\n            // Wholesaler to Distributer\r\n            MedicineW_D(cid).pickWD(pid, msg.sender);\r\n            consignmentTransporterType[cid] = transportertype;\r\n        } else if (transportertype == 4) {\r\n            // Distrubuter to Pharma\r\n            MedicineD_P(cid).pickDP(pid, msg.sender);\r\n        }\r\n    }\r\n\r\n    /// @notice\r\n    /// @dev Get Count of Consingment of transporter(Caller)\r\n    /// @return Number of Consingment\r\n    function transportCount() public view returns (uint256 count) {\r\n        require(\r\n            UsersDetails[msg.sender].role == roles.transporter,\r\n            \"Only Transporter Can call this function\"\r\n        );\r\n        return transporterConsignmentInfo[msg.sender].length;\r\n    }\r\n\r\n    /// @notice\r\n    /// @dev Get TransportBatchID by Indexed value of stored data\r\n    /// @param index Indexed Value\r\n    /// @return PackageID\r\n    function getTransportBatchIdByIndex(uint256 index)\r\n        public\r\n        view\r\n        returns (address packageID, uint256 transportertype)\r\n    {\r\n        require(\r\n            UsersDetails[msg.sender].role == roles.transporter,\r\n            \"Only Supplier Can call this function\"\r\n        );\r\n        return (\r\n            transporterConsignmentInfo[msg.sender][index],\r\n            consignmentTransporterType[\r\n                transporterConsignmentInfo[msg.sender][index]\r\n            ]\r\n        );\r\n    }\r\n\r\n    /********************************************** Manufacturer Section ******************************************/\r\n\r\n    /// @notice\r\n    /// @dev Update Package / Medicine batch recieved status by ethier Manufacturer or Distributer\r\n    /// @param pid  PackageID or MedicineID\r\n    function rawPackageReceived(address pid) public {\r\n        require(\r\n            UsersDetails[msg.sender].role == roles.manufacturer,\r\n            \"Only manufacturer can call this function\"\r\n        );\r\n        RawMaterials(pid).receivedPackage(msg.sender);\r\n        RawPackagesAtManufacturer[msg.sender].push(pid);\r\n    }\r\n\r\n    /// @notice\r\n    /// @dev Get Package Count at Manufacturer\r\n    /// @return Number of Packages at Manufacturer\r\n    function getPackagesCountM() public view returns (uint256 count) {\r\n        require(\r\n            UsersDetails[msg.sender].role == roles.manufacturer,\r\n            \"Only manufacturer can call this function\"\r\n        );\r\n        return RawPackagesAtManufacturer[msg.sender].length;\r\n    }\r\n\r\n    /// @notice\r\n    /// @dev Get PackageID by Indexed value of stored data\r\n    /// @param index Indexed Value\r\n    /// @return PackageID\r\n    function getPackageIDByIndexM(uint256 index)\r\n        public\r\n        view\r\n        returns (address BatchID)\r\n    {\r\n        require(\r\n            UsersDetails[msg.sender].role == roles.manufacturer,\r\n            \"Only manufacturer can call this function\"\r\n        );\r\n        return RawPackagesAtManufacturer[msg.sender][index];\r\n    }\r\n\r\n    /// @notice\r\n    /// @dev Create Medicine Batch\r\n    /// @param Des Description of Medicine batch\r\n    /// @param RM RawMaterials Information\r\n    /// @param Quant Number of Units\r\n    /// @param Shpr Transporter Ethereum Network Address\r\n    /// @param Rcvr Receiver Ethereum Network Address\r\n    /// @param RcvrType Receiver Type Either Wholesaler(1) or Distributer(2)\r\n    function manufacturMedicine(\r\n        bytes32 Des,\r\n        address RM,\r\n        uint256 Quant,\r\n        uint256 usedQuant,\r\n        address Shpr,\r\n        address Rcvr,\r\n        uint256 RcvrType\r\n    ) public {\r\n        require(\r\n            UsersDetails[msg.sender].role == roles.manufacturer,\r\n            \"Only manufacturer can call this function\"\r\n        );\r\n        require(RcvrType != 0, \"Receiver Type must be define\");\r\n        Medicine m = new Medicine(\r\n            msg.sender,\r\n            Des,\r\n            RM,\r\n            Quant,\r\n            Shpr,\r\n            Rcvr,\r\n            RcvrType\r\n        );\r\n        RawMaterials(RM).useRawPackage(msg.sender, usedQuant);\r\n        ManufactureredMedicineBatches[msg.sender].push(address(m));\r\n        transporterConsignmentInfo[Shpr].push(address(m));\r\n        consignmentTransporterType[address(m)] = 2;\r\n        emit MedicineNewBatch(address(m), msg.sender, Shpr, Rcvr);\r\n    }\r\n\r\n    /// @notice\r\n    /// @dev Get Medicine Batch Count\r\n    /// @return Number of Batches\r\n    function getBatchesCountM() public view returns (uint256 count) {\r\n        require(\r\n            UsersDetails[msg.sender].role == roles.manufacturer,\r\n            \"Only Manufacturer Can call this function.\"\r\n        );\r\n        return ManufactureredMedicineBatches[msg.sender].length;\r\n    }\r\n\r\n    /// @notice\r\n    /// @dev Get Medicine BatchID by indexed value of stored data\r\n    /// @param index Indexed Number\r\n    /// @return Medicine BatchID\r\n    function getBatchIdByIndexM(uint256 index)\r\n        public\r\n        view\r\n        returns (address packageID)\r\n    {\r\n        require(\r\n            UsersDetails[msg.sender].role == roles.manufacturer,\r\n            \"Only Manufacturer Can call this function.\"\r\n        );\r\n        return ManufactureredMedicineBatches[msg.sender][index];\r\n    }\r\n\r\n    /********************************************** Wholesaler Section ******************************************/\r\n\r\n    /// @notice\r\n    /// @dev Medicine Batch Received\r\n    /// @param batchid Medicine BatchID\r\n    /// @param cid Sub Contract ID for Medicine (if transaction Wholesaler to Distributer)\r\n    function medicineReceived(address batchid, address cid) public {\r\n        require(\r\n            UsersDetails[msg.sender].role == roles.wholesaler ||\r\n                UsersDetails[msg.sender].role == roles.distributer,\r\n            \"Only Wholesaler and Distributer can call this function\"\r\n        );\r\n\r\n        uint256 rtype = Medicine(batchid).receivedPackage(msg.sender);\r\n        if (rtype == 1) {\r\n            MedicineBatchesAtWholesaler[msg.sender].push(batchid);\r\n        } else if (rtype == 2) {\r\n            MedicineBatchAtDistributer[msg.sender].push(batchid);\r\n            if (Medicine(batchid).getWDP()[0] != address(0)) {\r\n                MedicineW_D(cid).recieveWD(batchid, msg.sender);\r\n            }\r\n        }\r\n    }\r\n\r\n    /// @notice\r\n    /// @dev Get Medicine Batch Count\r\n    /// @return Number of Batches\r\n    function getBatchesCountW() public view returns (uint256 count) {\r\n        require(\r\n            UsersDetails[msg.sender].role == roles.wholesaler,\r\n            \"Only wholesaler Can call this function.\"\r\n        );\r\n        return MedicineBatchesAtWholesaler[msg.sender].length;\r\n    }\r\n\r\n    /// @notice\r\n    /// @dev Get Medicine BatchID by indexed value of stored data\r\n    /// @param index Indexed Number\r\n    /// @return Medicine BatchID\r\n    function getBatchIdByIndexW(uint256 index)\r\n        public\r\n        view\r\n        returns (address packageID)\r\n    {\r\n        require(\r\n            UsersDetails[msg.sender].role == roles.wholesaler,\r\n            \"Only wholesaler Can call this function.\"\r\n        );\r\n        return MedicineBatchesAtWholesaler[msg.sender][index];\r\n    }\r\n\r\n    /// @notice\r\n    /// @dev Sub Contract for Medicine Transfer from Wholesaler to Distributer\r\n    /// @param BatchID Medicine BatchID\r\n    /// @param Shipper Transporter Ethereum Network Address\r\n    /// @param Receiver Distributer Ethereum Network Address\r\n    function transferMedicineWtoD(\r\n        address BatchID,\r\n        address Shipper,\r\n        address Receiver\r\n    ) public {\r\n        require(\r\n            UsersDetails[msg.sender].role == roles.wholesaler &&\r\n                msg.sender == Medicine(BatchID).getWDP()[0],\r\n            \"Only Wholesaler or current owner of package can call this function\"\r\n        );\r\n        MedicineW_D wd = new MedicineW_D(\r\n            BatchID,\r\n            msg.sender,\r\n            Shipper,\r\n            Receiver\r\n        );\r\n        MedicineWtoD[msg.sender].push(address(wd));\r\n        MedicineWtoDTxContract[BatchID] = address(wd);\r\n        transporterConsignmentInfo[Shipper].push(address(wd));\r\n        consignmentTransporterType[address(wd)] = 3;\r\n    }\r\n\r\n    /// @notice\r\n    /// @dev Get Medicine Batch Count\r\n    /// @return Number of Batches\r\n    function getBatchesCountWD() public view returns (uint256 count) {\r\n        require(\r\n            UsersDetails[msg.sender].role == roles.wholesaler,\r\n            \"Only Wholesaler Can call this function.\"\r\n        );\r\n        return MedicineWtoD[msg.sender].length;\r\n    }\r\n\r\n    /// @notice\r\n    /// @dev Get Medicine BatchID by indexed value of stored data\r\n    /// @param index Indexed Number\r\n    /// @return Medicine BatchID\r\n    function getBatchIdByIndexWD(uint256 index)\r\n        public\r\n        view\r\n        returns (address packageID)\r\n    {\r\n        require(\r\n            UsersDetails[msg.sender].role == roles.wholesaler,\r\n            \"Only Wholesaler Can call this function.\"\r\n        );\r\n        return MedicineWtoD[msg.sender][index];\r\n    }\r\n\r\n    /// @notice\r\n    /// @dev Get Sub Contract ID of Medicine Batch Transfer in between Wholesaler to Distributer\r\n    /// @param BatchID Medicine BatchID\r\n    /// @return SubContract ID\r\n    function getSubContractWD(address BatchID)\r\n        public\r\n        view\r\n        returns (address SubContractWD)\r\n    {\r\n        // require(\r\n        //     UsersDetails[msg.sender].role == roles.wholesaler,\r\n        //     \"Only Wholesaler Can call this function.\"\r\n        // );\r\n        return MedicineWtoDTxContract[BatchID];\r\n    }\r\n\r\n    /********************************************** Distributer Section ******************************************/\r\n\r\n    /// @notice\r\n    /// @dev Get Medicine Batch Count\r\n    /// @return Number of Batches\r\n    function getBatchesCountD() public view returns (uint256 count) {\r\n        require(\r\n            UsersDetails[msg.sender].role == roles.distributer,\r\n            \"Only Distributer Can call this function.\"\r\n        );\r\n        return MedicineBatchAtDistributer[msg.sender].length;\r\n    }\r\n\r\n    /// @notice\r\n    /// @dev Get Medicine BatchID by indexed value of stored data\r\n    /// @param index Indexed Number\r\n    /// @return Medicine BatchID\r\n    function getBatchIdByIndexD(uint256 index)\r\n        public\r\n        view\r\n        returns (address packageID)\r\n    {\r\n        require(\r\n            UsersDetails[msg.sender].role == roles.distributer,\r\n            \"Only Distributer Can call this function.\"\r\n        );\r\n        return MedicineBatchAtDistributer[msg.sender][index];\r\n    }\r\n\r\n    /// @notice\r\n    /// @dev Transfer Medicine BatchID in between Distributer to Pharma\r\n    /// @param BatchID Medicine BatchID\r\n    /// @param Shipper Transporter Ethereum Network Address\r\n    /// @param Receiver Pharma Ethereum Network Address\r\n    function transferMedicineDtoP(\r\n        address BatchID,\r\n        address Shipper,\r\n        address Receiver\r\n    ) public {\r\n        require(\r\n            UsersDetails[msg.sender].role == roles.distributer &&\r\n                msg.sender == Medicine(BatchID).getWDP()[1],\r\n            \"Only Distributer or current owner of package can call this function\"\r\n        );\r\n        MedicineD_P dp = new MedicineD_P(\r\n            BatchID,\r\n            msg.sender,\r\n            Shipper,\r\n            Receiver\r\n        );\r\n        MedicineDtoP[msg.sender].push(address(dp));\r\n        MedicineDtoPTxContract[BatchID] = address(dp);\r\n        transporterConsignmentInfo[Shipper].push(address(dp));\r\n        consignmentTransporterType[address(dp)] = 4;\r\n    }\r\n\r\n    /// @notice\r\n    /// @dev Get Medicine BatchID Count\r\n    /// @return Number of Batches\r\n    function getBatchesCountDP() public view returns (uint256 count) {\r\n        require(\r\n            UsersDetails[msg.sender].role == roles.distributer,\r\n            \"Only Distributer Can call this function.\"\r\n        );\r\n        return MedicineDtoP[msg.sender].length;\r\n    }\r\n\r\n    /// @notice\r\n    /// @dev Get Medicine BatchID by indexed value of stored data\r\n    /// @param index Index Number\r\n    /// @return Medicine BatchID\r\n    function getBatchIdByIndexDP(uint256 index)\r\n        public\r\n        view\r\n        returns (address packageID)\r\n    {\r\n        require(\r\n            UsersDetails[msg.sender].role == roles.distributer,\r\n            \"Only Distributer Can call this function.\"\r\n        );\r\n        return MedicineDtoP[msg.sender][index];\r\n    }\r\n\r\n    /// @notice\r\n    /// @dev Get SubContract ID of Medicine Batch Transfer in between Distributer to Pharma\r\n    /// @param BatchID Medicine BatchID\r\n    /// @return SubContract ID\r\n    function getSubContractDP(address BatchID)\r\n        public\r\n        view\r\n        returns (address SubContractDP)\r\n    {\r\n        // require(\r\n        //     UsersDetails[msg.sender].role == roles.distributer,\r\n        //     \"Only Distributer Can call this function.\"\r\n        // );\r\n        return MedicineDtoPTxContract[BatchID];\r\n    }\r\n\r\n    /********************************************** Pharma Section ******************************************/\r\n\r\n    /// @notice\r\n    /// @dev Medicine Batch Recieved\r\n    /// @param batchid Medicine BatchID\r\n    /// @param cid SubContract ID\r\n    function MedicineRecievedAtPharma(address batchid, address cid) public {\r\n        require(\r\n            UsersDetails[msg.sender].role == roles.pharma,\r\n            \"Only Pharma Can call this function.\"\r\n        );\r\n        MedicineD_P(cid).recieveDP(batchid, msg.sender);\r\n        MedicineBatchAtPharma[msg.sender].push(batchid);\r\n        sale[batchid] = salestatus(1);\r\n    }\r\n\r\n    /// @notice\r\n    /// @dev Update Medicine Batch status\r\n    /// @param BatchID Medicine BatchID\r\n    /// @param Status Medicine Batch Status ( sold, expire etc.)\r\n    function updateSaleStatus(address BatchID, uint256 Status) public {\r\n        require(\r\n            UsersDetails[msg.sender].role == roles.pharma &&\r\n                msg.sender == Medicine(BatchID).getWDP()[2],\r\n            \"Only Pharma or current owner of package can call this function\"\r\n        );\r\n\r\n        require(sale[BatchID] == salestatus(1), \"Medicine Must be at Pharma\");\r\n        sale[BatchID] = salestatus(Status);\r\n        emit MedicineStatus(BatchID, msg.sender, Status);\r\n    }\r\n\r\n    /// @notice\r\n    /// @dev Get Medicine Batch status\r\n    /// @param BatchID Medicine BatchID\r\n    /// @return Status\r\n    function salesInfo(address BatchID) public view returns (uint256 Status) {\r\n        return uint256(sale[BatchID]);\r\n    }\r\n\r\n    /// @notice\r\n    /// @dev Get Medicine Batch count\r\n    /// @return Number of Batches\r\n    function getBatchesCountP() public view returns (uint256 count) {\r\n        require(\r\n            UsersDetails[msg.sender].role == roles.pharma,\r\n            \"Only Wholesaler or current owner of package can call this function\"\r\n        );\r\n        return MedicineBatchAtPharma[msg.sender].length;\r\n    }\r\n\r\n    /// @notice\r\n    /// @dev Get Medicine BatchID by indexed value of stored data\r\n    /// @param index Index Number\r\n    /// @return Medicine BatchID\r\n    function getBatchIdByIndexP(uint256 index)\r\n        public\r\n        view\r\n        returns (address BatchID)\r\n    {\r\n        require(\r\n            UsersDetails[msg.sender].role == roles.pharma,\r\n            \"Only Wholesaler or current owner of package can call this function\"\r\n        );\r\n        return MedicineBatchAtPharma[msg.sender][index];\r\n    }\r\n}\r\n",
  "sourcePath": "/truffle/contracts/SupplyChain.sol",
  "compiler": {
    "name": "solc",
    "version": "0.5.1+commit.c8a2cb62.Emscripten.clang"
  },
  "schemaVersion": "3.4.7",
  "updatedAt": "2023-05-31T04:16:41.412Z",
  "networkType": "ethereum",
  "devdoc": {
    "author": "Yash Gupta",
    "methods": {
      "MedicineRecievedAtPharma(address,address)": {
        "params": {
          "cid": "SubContract ID"
        }
      },
      "constructor": {
        "details": "Initiate SupplyChain Contract"
      },
      "createRawPackage(bytes32,bytes32,bytes32,uint256,address,address)": {
        "params": {
          "Rcvr": "Manufacturer Ethereum Network Address"
        }
      },
      "getBatchIdByIndexD(uint256)": {
        "return": "Medicine BatchID"
      },
      "getBatchIdByIndexDP(uint256)": {
        "return": "Medicine BatchID"
      },
      "getBatchIdByIndexM(uint256)": {
        "return": "Medicine BatchID"
      },
      "getBatchIdByIndexP(uint256)": {
        "return": "Medicine BatchID"
      },
      "getBatchIdByIndexW(uint256)": {
        "return": "Medicine BatchID"
      },
      "getBatchIdByIndexWD(uint256)": {
        "return": "Medicine BatchID"
      },
      "getBatchesCountD()": {
        "return": "Number of Batches"
      },
      "getBatchesCountDP()": {
        "return": "Number of Batches"
      },
      "getBatchesCountM()": {
        "return": "Number of Batches"
      },
      "getBatchesCountP()": {
        "return": "Number of Batches"
      },
      "getBatchesCountW()": {
        "return": "Number of Batches"
      },
      "getBatchesCountWD()": {
        "return": "Number of Batches"
      },
      "getPackageIDByIndexM(uint256)": {
        "return": "PackageID"
      },
      "getPackageIdByIndexS(uint256)": {
        "return": "PackageID"
      },
      "getPackagesCountM()": {
        "return": "Number of Packages at Manufacturer"
      },
      "getPackagesCountS()": {
        "return": "Number of packages"
      },
      "getSubContractDP(address)": {
        "return": "SubContract ID"
      },
      "getSubContractWD(address)": {
        "return": "SubContract ID"
      },
      "getTransportBatchIdByIndex(uint256)": {
        "return": "PackageID"
      },
      "getUserInfo(address)": {
        "return": "User Details"
      },
      "getUserbyIndex(uint256)": {
        "return": "User Details"
      },
      "getUsersCount()": {
        "return": "Number of registered Users"
      },
      "loadConsingment(address,uint256,address)": {
        "params": {
          "cid": "Sub Contract ID for Consingment transaction"
        }
      },
      "manufacturMedicine(bytes32,address,uint256,uint256,address,address,uint256)": {
        "params": {
          "RcvrType": "Receiver Type Either Wholesaler(1) or Distributer(2)"
        }
      },
      "medicineReceived(address,address)": {
        "params": {
          "cid": "Sub Contract ID for Medicine (if transaction Wholesaler to Distributer)"
        }
      },
      "rawPackageReceived(address)": {
        "params": {
          "pid": "PackageID or MedicineID"
        }
      },
      "reassigneRole(address,uint256)": {
        "params": {
          "Role": "Role to assigne"
        }
      },
      "registerUser(address,bytes32,bytes32,uint256)": {
        "params": {
          "Role": "User Role"
        }
      },
      "revokeRole(address)": {
        "params": {
          "userAddress": "User Ethereum Network Address"
        }
      },
      "salesInfo(address)": {
        "return": "Status"
      },
      "transferMedicineDtoP(address,address,address)": {
        "params": {
          "Receiver": "Pharma Ethereum Network Address"
        }
      },
      "transferMedicineWtoD(address,address,address)": {
        "params": {
          "Receiver": "Distributer Ethereum Network Address"
        }
      },
      "transportCount()": {
        "return": "Number of Consingment"
      },
      "updateSaleStatus(address,uint256)": {
        "params": {
          "Status": "Medicine Batch Status ( sold, expire etc.)"
        }
      }
    }
  },
  "userdoc": {
    "methods": {}
  }
}